{
  "contractName": "SignatureVerification",
  "abi": [
    {
      "constant": true,
      "inputs": [
        {
          "name": "data",
          "type": "bytes32[]"
        }
      ],
      "name": "getSigner",
      "outputs": [
        {
          "name": "",
          "type": "address"
        }
      ],
      "payable": false,
      "stateMutability": "pure",
      "type": "function"
    },
    {
      "constant": true,
      "inputs": [
        {
          "name": "data",
          "type": "bytes32[]"
        }
      ],
      "name": "getOrderHash",
      "outputs": [
        {
          "name": "",
          "type": "bytes32"
        }
      ],
      "payable": false,
      "stateMutability": "pure",
      "type": "function"
    },
    {
      "constant": true,
      "inputs": [
        {
          "name": "data",
          "type": "bytes32[]"
        }
      ],
      "name": "verify",
      "outputs": [
        {
          "name": "",
          "type": "bool"
        }
      ],
      "payable": false,
      "stateMutability": "pure",
      "type": "function"
    },
    {
      "constant": true,
      "inputs": [
        {
          "name": "signer",
          "type": "address"
        },
        {
          "name": "orderHash",
          "type": "bytes32"
        },
        {
          "name": "v",
          "type": "uint8"
        },
        {
          "name": "r",
          "type": "bytes32"
        },
        {
          "name": "s",
          "type": "bytes32"
        }
      ],
      "name": "checkSignature",
      "outputs": [
        {
          "name": "",
          "type": "bool"
        }
      ],
      "payable": false,
      "stateMutability": "pure",
      "type": "function"
    }
  ],
  "bytecode": "0x608060405234801561001057600080fd5b50610581806100206000396000f3fe6080604052600436106100615763ffffffff7c010000000000000000000000000000000000000000000000000000000060003504166365e2cd998114610066578063976116381461013f5780639f46e9d714610203578063e5a4aaa11461025e575b600080fd5b34801561007257600080fd5b506101166004803603602081101561008957600080fd5b8101906020810181356401000000008111156100a457600080fd5b8201836020820111156100b657600080fd5b803590602001918460208302840111640100000000831117156100d857600080fd5b919080806020026020016040519081016040528093929190818152602001838360200280828437600092019190915250929550610320945050505050565b6040805173ffffffffffffffffffffffffffffffffffffffff9092168252519081900360200190f35b34801561014b57600080fd5b506101ef6004803603602081101561016257600080fd5b81019060208101813564010000000081111561017d57600080fd5b82018360208201111561018f57600080fd5b803590602001918460208302840111640100000000831117156101b157600080fd5b919080806020026020016040519081016040528093929190818152602001838360200280828437600092019190915250929550610352945050505050565b604080519115158252519081900360200190f35b34801561020f57600080fd5b506101ef600480360360a081101561022657600080fd5b5073ffffffffffffffffffffffffffffffffffffffff8135169060208101359060ff60408201351690606081013590608001356103fc565b34801561026a57600080fd5b5061030e6004803603602081101561028157600080fd5b81019060208101813564010000000081111561029c57600080fd5b8201836020820111156102ae57600080fd5b803590602001918460208302840111640100000000831117156102d057600080fd5b9190808060200260200160405190810160405280939291908181526020018383602002808284376000920191909152509295506104e2945050505050565b60408051918252519081900360200190f35b600081600081518110151561033157fe5b906020019060200201516c0100000000000000000000000090049050919050565b60008082600384510381518110151561036757fe5b906020019060200201517f01000000000000000000000000000000000000000000000000000000000000009004905060008360028551038151811015156103aa57fe5b90602001906020020151905060008460018651038151811015156103ca57fe5b9060200190602002015190506103f36103e286610320565b6103eb876104e2565b8585856103fc565b95945050505050565b6000808560405160200180807f19457468657265756d205369676e6564204d6573736167653a0a333200000000815250601c01828152602001915050604051602081830303815290604052805190602001209050600060018287878760405160008152602001604052604051808581526020018460ff1660ff1681526020018381526020018281526020019450505050506020604051602081039080840390855afa1580156104af573d6000803e3d6000fd5b5050604051601f19015173ffffffffffffffffffffffffffffffffffffffff8a8116911614935050505095945050505050565b60006104ed82610320565b604051602001808273ffffffffffffffffffffffffffffffffffffffff1673ffffffffffffffffffffffffffffffffffffffff166c0100000000000000000000000002815260140191505060405160208183030381529060405280519060200120905091905056fea165627a7a7230582011942a525d322233f2306d8c1ef33d2e8a9296a8ea5b3f3e7c0b1ab488bfcf970029",
  "source": "pragma solidity ^0.5.0;\n\n/** @title SignatureVerification\n*/\ncontract SignatureVerification {\n\n  /** @dev Select and convert signer address from maker submitted data by assuming it is the first entry\n      @notice Select and convert signer address from maker submitted data by assuming it is the first entry\n      @param data Kosu Order serialized based on makerArguments.\n      @return Kosu Order signer address\n  */\n  function getSigner(bytes32[] memory data) pure public returns (address) {\n    return address(bytes20(data[0]));\n  }\n\n  /** @dev Default implementation that only hashes the signer. This method should be overridden.\n      @notice Default implementation that only hashes the signer. This method should be overridden.\n      @param data Kosu Order serialized based on makerArguments.\n      @return Hashed order.\n  */\n  function getOrderHash(bytes32[] memory data) pure public returns (bytes32) {\n    return keccak256(abi.encodePacked(getSigner(data)));\n  }\n\n  /** @dev Validates the signed order assuming the last three maker values are v, r and s.\n      @notice Validates the signed order assuming the last three maker values are v, r and s.\n      @param data Kosu Order serialized based on makerArguments.\n      @return Validity of the signature boolean\n  */\n  function verify(bytes32[] memory data) pure public returns (bool) {\n    uint8   v = uint8(bytes1(data[data.length - 3]));\n    bytes32 r = data[data.length - 2];\n    bytes32 s = data[data.length - 1];\n\n    return checkSignature(getSigner(data), getOrderHash(data), v, r, s);\n  }\n\n  /** @dev Recovers the hash with the v, r and s.  And compares to the signer.\n      @notice Recovers the hash with the v, r and s.  And compares to the signer.\n      @param signer Signer address\n      @param orderHash Hashed Kosu order\n      @param v Signature v\n      @param r Signature r\n      @param s Signature s\n      @return Validity of the signature boolean\n  */\n  function checkSignature(address signer, bytes32 orderHash, uint8 v, bytes32 r, bytes32 s) pure public returns (bool) {\n    bytes32 hash = keccak256(abi.encodePacked(\"\\x19Ethereum Signed Message:\\n32\", orderHash));\n    address recoveredAddress = ecrecover(hash, v, r, s);\n    return signer == recoveredAddress;\n  }\n\n}\n",
  "sourcePath": "/Users/hen/GitHub/kosu-monorepo/packages/kosu-sdk-contracts/contracts/SignatureVerification.sol",
  "compiler": {
    "name": "solc",
    "version": "0.5.0+commit.1d4f565a.Emscripten.clang"
  },
  "schemaVersion": "3.0.6",
  "updatedAt": "2019-05-02T04:15:28.538Z",
  "devdoc": {
    "methods": {
      "checkSignature(address,bytes32,uint8,bytes32,bytes32)": {
        "details": "Recovers the hash with the v, r and s.  And compares to the signer.",
        "params": {
          "orderHash": "Hashed Kosu order",
          "r": "Signature r",
          "s": "Signature s",
          "signer": "Signer address",
          "v": "Signature v"
        },
        "return": "Validity of the signature boolean"
      },
      "getOrderHash(bytes32[])": {
        "details": "Default implementation that only hashes the signer. This method should be overridden.",
        "params": {
          "data": "Kosu Order serialized based on makerArguments."
        },
        "return": "Hashed order."
      },
      "getSigner(bytes32[])": {
        "details": "Select and convert signer address from maker submitted data by assuming it is the first entry",
        "params": {
          "data": "Kosu Order serialized based on makerArguments."
        },
        "return": "Kosu Order signer address"
      },
      "verify(bytes32[])": {
        "details": "Validates the signed order assuming the last three maker values are v, r and s.",
        "params": {
          "data": "Kosu Order serialized based on makerArguments."
        },
        "return": "Validity of the signature boolean"
      }
    },
    "title": "SignatureVerification"
  },
  "userdoc": {
    "methods": {
      "checkSignature(address,bytes32,uint8,bytes32,bytes32)": {
        "notice": "Recovers the hash with the v, r and s.  And compares to the signer."
      },
      "getOrderHash(bytes32[])": {
        "notice": "Default implementation that only hashes the signer. This method should be overridden."
      },
      "getSigner(bytes32[])": {
        "notice": "Select and convert signer address from maker submitted data by assuming it is the first entry"
      },
      "verify(bytes32[])": {
        "notice": "Validates the signed order assuming the last three maker values are v, r and s."
      }
    }
  }
}