{
  "contractName": "AuthorizedAddresses",
  "abi": [
    {
      "constant": false,
      "inputs": [],
      "name": "renounceOwnership",
      "outputs": [],
      "payable": false,
      "stateMutability": "nonpayable",
      "type": "function",
      "signature": "0x715018a6"
    },
    {
      "constant": true,
      "inputs": [],
      "name": "owner",
      "outputs": [
        {
          "name": "",
          "type": "address"
        }
      ],
      "payable": false,
      "stateMutability": "view",
      "type": "function",
      "signature": "0x8da5cb5b"
    },
    {
      "constant": true,
      "inputs": [],
      "name": "isOwner",
      "outputs": [
        {
          "name": "",
          "type": "bool"
        }
      ],
      "payable": false,
      "stateMutability": "view",
      "type": "function",
      "signature": "0x8f32d59b"
    },
    {
      "constant": false,
      "inputs": [
        {
          "name": "newOwner",
          "type": "address"
        }
      ],
      "name": "transferOwnership",
      "outputs": [],
      "payable": false,
      "stateMutability": "nonpayable",
      "type": "function",
      "signature": "0xf2fde38b"
    },
    {
      "inputs": [],
      "payable": false,
      "stateMutability": "nonpayable",
      "type": "constructor",
      "signature": "constructor"
    },
    {
      "anonymous": false,
      "inputs": [
        {
          "indexed": true,
          "name": "previousOwner",
          "type": "address"
        },
        {
          "indexed": true,
          "name": "newOwner",
          "type": "address"
        }
      ],
      "name": "OwnershipTransferred",
      "type": "event",
      "signature": "0x8be0079c531659141344cd1fd0a4f28419497f9722a3daafe3b4186f6b6457e0"
    },
    {
      "constant": false,
      "inputs": [
        {
          "name": "a",
          "type": "address"
        }
      ],
      "name": "authorizeAddress",
      "outputs": [],
      "payable": false,
      "stateMutability": "nonpayable",
      "type": "function",
      "signature": "0x4a5db3b5"
    },
    {
      "constant": false,
      "inputs": [
        {
          "name": "a",
          "type": "address"
        }
      ],
      "name": "unauthorizeAddress",
      "outputs": [],
      "payable": false,
      "stateMutability": "nonpayable",
      "type": "function",
      "signature": "0xbbd4845c"
    },
    {
      "constant": true,
      "inputs": [
        {
          "name": "a",
          "type": "address"
        }
      ],
      "name": "isAddressAuthorized",
      "outputs": [
        {
          "name": "",
          "type": "bool"
        }
      ],
      "payable": false,
      "stateMutability": "view",
      "type": "function",
      "signature": "0xced3fb9c"
    }
  ],
  "bytecode": "0x608060405234801561001057600080fd5b5060008054600160a060020a0319163317808255604051600160a060020a039190911691907f8be0079c531659141344cd1fd0a4f28419497f9722a3daafe3b4186f6b6457e0908290a3600180600061007064010000000061009d810204565b600160a060020a031681526020810191909152604001600020805460ff19169115159190911790556100ac565b600054600160a060020a031690565b6103b8806100bb6000396000f3fe6080604052600436106100825763ffffffff7c01000000000000000000000000000000000000000000000000000000006000350416634a5db3b58114610087578063715018a6146100bc5780638da5cb5b146100d15780638f32d59b14610102578063bbd4845c1461012b578063ced3fb9c1461015e578063f2fde38b14610191575b600080fd5b34801561009357600080fd5b506100ba600480360360208110156100aa57600080fd5b5035600160a060020a03166101c4565b005b3480156100c857600080fd5b506100ba610209565b3480156100dd57600080fd5b506100e6610273565b60408051600160a060020a039092168252519081900360200190f35b34801561010e57600080fd5b50610117610282565b604080519115158252519081900360200190f35b34801561013757600080fd5b506100ba6004803603602081101561014e57600080fd5b5035600160a060020a0316610293565b34801561016a57600080fd5b506101176004803603602081101561018157600080fd5b5035600160a060020a03166102d2565b34801561019d57600080fd5b506100ba600480360360208110156101b457600080fd5b5035600160a060020a03166102f0565b3360009081526001602052604090205460ff1615156101e257600080fd5b600160a060020a03166000908152600160208190526040909120805460ff19169091179055565b610211610282565b151561021c57600080fd5b60008054604051600160a060020a03909116907f8be0079c531659141344cd1fd0a4f28419497f9722a3daafe3b4186f6b6457e0908390a36000805473ffffffffffffffffffffffffffffffffffffffff19169055565b600054600160a060020a031690565b600054600160a060020a0316331490565b3360009081526001602052604090205460ff1615156102b157600080fd5b600160a060020a03166000908152600160205260409020805460ff19169055565b600160a060020a031660009081526001602052604090205460ff1690565b6102f8610282565b151561030357600080fd5b61030c8161030f565b50565b600160a060020a038116151561032457600080fd5b60008054604051600160a060020a03808516939216917f8be0079c531659141344cd1fd0a4f28419497f9722a3daafe3b4186f6b6457e091a36000805473ffffffffffffffffffffffffffffffffffffffff1916600160a060020a039290921691909117905556fea165627a7a7230582044bbf7de6a0f1ee4c48ce3831fdbf9ff5a24ec4298d627f9e9a7fe17484fdc4f0029",
  "source": "pragma solidity ^0.5.0;\n\nimport \"openzeppelin-solidity/contracts/ownership/Ownable.sol\";\n\n/** @title AuthorizedAddresses\n    @author Freydal\n*/\ncontract AuthorizedAddresses is Ownable {\n\n    // Mapping storing address permissions\n    mapping(address => bool) private authorizedAddresses;\n\n    /** @dev Constructor initializes with the creator permission set to true.\n        @notice Constructor initializes with the creator permission set to true.\n    */\n    constructor() Ownable() public {\n        authorizedAddresses[owner()] = true;\n    }\n\n    /** @dev Authorizes the address by setting the mapping value to true\n        @notice Authorizes the address by setting the mapping value to true\n        @param a Address to authorize\n    */\n    function authorizeAddress(address a) public {\n        require(authorizedAddresses[msg.sender]);\n        authorizedAddresses[a] = true;\n    }\n\n    /** @dev Unauthorizes the address by setting the mapping value to false\n        @notice Unauthorizes the address by setting the mapping value to false\n        @param a Address to unauthorize\n    */\n    function unauthorizeAddress(address a) public {\n        require(authorizedAddresses[msg.sender]);\n        authorizedAddresses[a] = false;\n    }\n\n    /** @dev Verify if address is authorized by reading contract mapping\n        @notice Verify if address is authorized by reading contract mapping\n        @param a Address to get authorized value.\n        @return boolean\n    */\n    function isAddressAuthorized(address a) public view returns (bool) {\n        return authorizedAddresses[a];\n    }\n}\n",
  "sourcePath": "/Users/freydal/IdeaProjects/kosu-monorepo/packages/solidity/kosu-system-contracts/contracts/access_control/AuthorizedAddresses.sol",
  "compiler": {
    "name": "solc",
    "version": "0.5.0+commit.1d4f565a.Emscripten.clang"
  },
  "schemaVersion": "3.0.6",
  "updatedAt": "2019-04-22T21:57:11.360Z",
  "devdoc": {
    "author": "Freydal",
    "methods": {
      "authorizeAddress(address)": {
        "details": "Authorizes the address by setting the mapping value to true",
        "params": {
          "a": "Address to authorize"
        }
      },
      "constructor": {
        "details": "Constructor initializes with the creator permission set to true."
      },
      "isAddressAuthorized(address)": {
        "details": "Verify if address is authorized by reading contract mapping",
        "params": {
          "a": "Address to get authorized value."
        },
        "return": "boolean"
      },
      "isOwner()": {
        "return": "true if `msg.sender` is the owner of the contract."
      },
      "owner()": {
        "return": "the address of the owner."
      },
      "renounceOwnership()": {
        "details": "Allows the current owner to relinquish control of the contract."
      },
      "transferOwnership(address)": {
        "details": "Allows the current owner to transfer control of the contract to a newOwner.",
        "params": {
          "newOwner": "The address to transfer ownership to."
        }
      },
      "unauthorizeAddress(address)": {
        "details": "Unauthorizes the address by setting the mapping value to false",
        "params": {
          "a": "Address to unauthorize"
        }
      }
    },
    "title": "AuthorizedAddresses"
  },
  "userdoc": {
    "methods": {
      "authorizeAddress(address)": {
        "notice": "Authorizes the address by setting the mapping value to true"
      },
      "constructor": "Constructor initializes with the creator permission set to true.",
      "isAddressAuthorized(address)": {
        "notice": "Verify if address is authorized by reading contract mapping"
      },
      "renounceOwnership()": {
        "notice": "Renouncing to ownership will leave the contract without an owner. It will not be possible to call the functions with the `onlyOwner` modifier anymore."
      },
      "unauthorizeAddress(address)": {
        "notice": "Unauthorizes the address by setting the mapping value to false"
      }
    }
  }
}