{
  "contractName": "EventEmitter",
  "abi": [
    {
      "inputs": [
        {
          "name": "auth",
          "type": "address"
        }
      ],
      "payable": false,
      "stateMutability": "nonpayable",
      "type": "constructor",
      "signature": "constructor"
    },
    {
      "anonymous": false,
      "inputs": [
        {
          "indexed": false,
          "name": "eventType",
          "type": "string"
        },
        {
          "indexed": false,
          "name": "data",
          "type": "bytes32[]"
        }
      ],
      "name": "KosuEvent",
      "type": "event",
      "signature": "0xad5a093c71de50a5392baf7ae7ddff02f8968fa88f8f670afa7d516b5588923c"
    },
    {
      "constant": false,
      "inputs": [
        {
          "name": "eventType",
          "type": "string"
        },
        {
          "name": "data",
          "type": "bytes32[]"
        }
      ],
      "name": "emitEvent",
      "outputs": [],
      "payable": false,
      "stateMutability": "nonpayable",
      "type": "function",
      "signature": "0x27902401"
    }
  ],
  "bytecode": "0x608060405234801561001057600080fd5b506040516020806102e28339810180604052602081101561003057600080fd5b505160008054600160a060020a03909216600160a060020a0319909216919091179055610280806100626000396000f3fe6080604052600436106100405763ffffffff7c0100000000000000000000000000000000000000000000000000000000600035041663279024018114610045575b600080fd5b34801561005157600080fd5b506101146004803603604081101561006857600080fd5b81019060208101813564010000000081111561008357600080fd5b82018360208201111561009557600080fd5b803590602001918460018302840111640100000000831117156100b757600080fd5b9193909290916020810190356401000000008111156100d557600080fd5b8201836020820111156100e757600080fd5b8035906020019184602083028401116401000000008311171561010957600080fd5b509092509050610116565b005b600054604080517fced3fb9c000000000000000000000000000000000000000000000000000000008152336004820152905173ffffffffffffffffffffffffffffffffffffffff9092169163ced3fb9c91602480820192602092909190829003018186803b15801561018757600080fd5b505afa15801561019b573d6000803e3d6000fd5b505050506040513d60208110156101b157600080fd5b505115156101be57600080fd5b7fad5a093c71de50a5392baf7ae7ddff02f8968fa88f8f670afa7d516b5588923c848484846040518080602001806020018381038352878782818152602001925080828437600083820152601f01601f19169091018481038352858152602090810191508690860280828437600083820152604051601f909101601f19169092018290039850909650505050505050a15050505056fea165627a7a723058201f848f1e89958db49f9536017a0c60177f5ecc933033cbc369632404e04f94d90029",
  "source": "pragma solidity ^0.5.0;\n\nimport \"../base/Authorizable.sol\";\n\n/** @title EventEmitter\n    @author Freydal\n*/\ncontract EventEmitter is Authorizable {\n\n    //Generic event which can be decoded in Javascript via internal library.\n    event KosuEvent(string eventType, bytes32[] data);\n\n    /** @dev Event emitter instantiated with Authorizable.\n        @notice Event emitter instantiated with Authorizable.\n        @param auth AuthorizedAddresses deployed address.\n    */\n    constructor(address auth) Authorizable(auth) public {\n    }\n\n    /** @dev Emit generic events which can have decoding exposed though javascript library.\n        @notice Emit generic events which can have decoding exposed though javascript library.\n        @param eventType String name/type of event\n        @param data Bytes32 encoded data to be emitted from a centralized location.\n    */\n    function emitEvent(string calldata eventType, bytes32[] calldata data) external isAuthorized {\n        emit KosuEvent(eventType, data);\n    }\n}\n\n\n\n",
  "sourcePath": "/Users/freydal/IdeaProjects/kosu-monorepo/packages/solidity/kosu-system-contracts/contracts/event/EventEmitter.sol",
  "compiler": {
    "name": "solc",
    "version": "0.5.0+commit.1d4f565a.Emscripten.clang"
  },
  "schemaVersion": "3.0.6",
  "updatedAt": "2019-04-22T21:57:11.357Z",
  "devdoc": {
    "author": "Freydal",
    "methods": {
      "constructor": {
        "details": "Event emitter instantiated with Authorizable.",
        "params": {
          "auth": "AuthorizedAddresses deployed address."
        }
      },
      "emitEvent(string,bytes32[])": {
        "details": "Emit generic events which can have decoding exposed though javascript library.",
        "params": {
          "data": "Bytes32 encoded data to be emitted from a centralized location.",
          "eventType": "String name/type of event"
        }
      }
    },
    "title": "EventEmitter"
  },
  "userdoc": {
    "methods": {
      "constructor": "Event emitter instantiated with Authorizable.",
      "emitEvent(string,bytes32[])": {
        "notice": "Emit generic events which can have decoding exposed though javascript library."
      }
    }
  }
}