{
  "contractName": "KosuToken",
  "abi": [
    {
      "constant": true,
      "inputs": [],
      "name": "name",
      "outputs": [
        {
          "name": "",
          "type": "string"
        }
      ],
      "payable": false,
      "stateMutability": "view",
      "type": "function",
      "signature": "0x06fdde03"
    },
    {
      "constant": false,
      "inputs": [
        {
          "name": "spender",
          "type": "address"
        },
        {
          "name": "value",
          "type": "uint256"
        }
      ],
      "name": "approve",
      "outputs": [
        {
          "name": "",
          "type": "bool"
        }
      ],
      "payable": false,
      "stateMutability": "nonpayable",
      "type": "function",
      "signature": "0x095ea7b3"
    },
    {
      "constant": true,
      "inputs": [],
      "name": "totalSupply",
      "outputs": [
        {
          "name": "",
          "type": "uint256"
        }
      ],
      "payable": false,
      "stateMutability": "view",
      "type": "function",
      "signature": "0x18160ddd"
    },
    {
      "constant": false,
      "inputs": [
        {
          "name": "from",
          "type": "address"
        },
        {
          "name": "to",
          "type": "address"
        },
        {
          "name": "value",
          "type": "uint256"
        }
      ],
      "name": "transferFrom",
      "outputs": [
        {
          "name": "",
          "type": "bool"
        }
      ],
      "payable": false,
      "stateMutability": "nonpayable",
      "type": "function",
      "signature": "0x23b872dd"
    },
    {
      "constant": true,
      "inputs": [],
      "name": "decimals",
      "outputs": [
        {
          "name": "",
          "type": "uint8"
        }
      ],
      "payable": false,
      "stateMutability": "view",
      "type": "function",
      "signature": "0x313ce567"
    },
    {
      "constant": false,
      "inputs": [
        {
          "name": "spender",
          "type": "address"
        },
        {
          "name": "addedValue",
          "type": "uint256"
        }
      ],
      "name": "increaseAllowance",
      "outputs": [
        {
          "name": "",
          "type": "bool"
        }
      ],
      "payable": false,
      "stateMutability": "nonpayable",
      "type": "function",
      "signature": "0x39509351"
    },
    {
      "constant": true,
      "inputs": [
        {
          "name": "owner",
          "type": "address"
        }
      ],
      "name": "balanceOf",
      "outputs": [
        {
          "name": "",
          "type": "uint256"
        }
      ],
      "payable": false,
      "stateMutability": "view",
      "type": "function",
      "signature": "0x70a08231"
    },
    {
      "constant": true,
      "inputs": [],
      "name": "symbol",
      "outputs": [
        {
          "name": "",
          "type": "string"
        }
      ],
      "payable": false,
      "stateMutability": "view",
      "type": "function",
      "signature": "0x95d89b41"
    },
    {
      "constant": false,
      "inputs": [
        {
          "name": "spender",
          "type": "address"
        },
        {
          "name": "subtractedValue",
          "type": "uint256"
        }
      ],
      "name": "decreaseAllowance",
      "outputs": [
        {
          "name": "",
          "type": "bool"
        }
      ],
      "payable": false,
      "stateMutability": "nonpayable",
      "type": "function",
      "signature": "0xa457c2d7"
    },
    {
      "constant": false,
      "inputs": [
        {
          "name": "to",
          "type": "address"
        },
        {
          "name": "value",
          "type": "uint256"
        }
      ],
      "name": "transfer",
      "outputs": [
        {
          "name": "",
          "type": "bool"
        }
      ],
      "payable": false,
      "stateMutability": "nonpayable",
      "type": "function",
      "signature": "0xa9059cbb"
    },
    {
      "constant": true,
      "inputs": [
        {
          "name": "owner",
          "type": "address"
        },
        {
          "name": "spender",
          "type": "address"
        }
      ],
      "name": "allowance",
      "outputs": [
        {
          "name": "",
          "type": "uint256"
        }
      ],
      "payable": false,
      "stateMutability": "view",
      "type": "function",
      "signature": "0xdd62ed3e"
    },
    {
      "inputs": [
        {
          "name": "_auth",
          "type": "address"
        }
      ],
      "payable": false,
      "stateMutability": "nonpayable",
      "type": "constructor",
      "signature": "constructor"
    },
    {
      "anonymous": false,
      "inputs": [
        {
          "indexed": true,
          "name": "from",
          "type": "address"
        },
        {
          "indexed": true,
          "name": "to",
          "type": "address"
        },
        {
          "indexed": false,
          "name": "value",
          "type": "uint256"
        }
      ],
      "name": "Transfer",
      "type": "event",
      "signature": "0xddf252ad1be2c89b69c2b068fc378daa952ba7f163c4a11628f55a4df523b3ef"
    },
    {
      "anonymous": false,
      "inputs": [
        {
          "indexed": true,
          "name": "owner",
          "type": "address"
        },
        {
          "indexed": true,
          "name": "spender",
          "type": "address"
        },
        {
          "indexed": false,
          "name": "value",
          "type": "uint256"
        }
      ],
      "name": "Approval",
      "type": "event",
      "signature": "0x8c5be1e5ebec7d5bd14f71427d1e84f3dd0314c0f7b2291e5b200ac8c7c3b925"
    },
    {
      "constant": false,
      "inputs": [
        {
          "name": "amount",
          "type": "uint256"
        }
      ],
      "name": "burn",
      "outputs": [],
      "payable": false,
      "stateMutability": "nonpayable",
      "type": "function",
      "signature": "0x42966c68"
    },
    {
      "constant": false,
      "inputs": [
        {
          "name": "amount",
          "type": "uint256"
        }
      ],
      "name": "mint",
      "outputs": [],
      "payable": false,
      "stateMutability": "nonpayable",
      "type": "function",
      "signature": "0xa0712d68"
    },
    {
      "constant": false,
      "inputs": [
        {
          "name": "_address",
          "type": "address"
        },
        {
          "name": "amount",
          "type": "uint256"
        }
      ],
      "name": "mintTo",
      "outputs": [],
      "payable": false,
      "stateMutability": "nonpayable",
      "type": "function",
      "signature": "0x449a52f8"
    }
  ],
  "bytecode": "0x60c0604052600460808190527f4b4f53550000000000000000000000000000000000000000000000000000000060a090815261003c9190816100e1565b506040805180820190915260048082527f4b4f5355000000000000000000000000000000000000000000000000000000006020909201918252610081916005916100e1565b506006805460ff1916601217905534801561009b57600080fd5b50604051602080610d8e833981018060405260208110156100bb57600080fd5b505160038054600160a060020a031916600160a060020a0390921691909117905561017c565b828054600181600116156101000203166002900490600052602060002090601f016020900481019282601f1061012257805160ff191683800117855561014f565b8280016001018555821561014f579182015b8281111561014f578251825591602001919060010190610134565b5061015b92915061015f565b5090565b61017991905b8082111561015b5760008155600101610165565b90565b610c038061018b6000396000f3fe6080604052600436106100cf5763ffffffff7c010000000000000000000000000000000000000000000000000000000060003504166306fdde0381146100d4578063095ea7b31461015e57806318160ddd146101ab57806323b872dd146101d2578063313ce56714610215578063395093511461024057806342966c6814610279578063449a52f8146102a557806370a08231146102de57806395d89b4114610311578063a0712d6814610326578063a457c2d714610350578063a9059cbb14610389578063dd62ed3e146103c2575b600080fd5b3480156100e057600080fd5b506100e96103fd565b6040805160208082528351818301528351919283929083019185019080838360005b8381101561012357818101518382015260200161010b565b50505050905090810190601f1680156101505780820380516001836020036101000a031916815260200191505b509250505060405180910390f35b34801561016a57600080fd5b506101976004803603604081101561018157600080fd5b50600160a060020a03813516906020013561048b565b604080519115158252519081900360200190f35b3480156101b757600080fd5b506101c0610509565b60408051918252519081900360200190f35b3480156101de57600080fd5b50610197600480360360608110156101f557600080fd5b50600160a060020a0381358116916020810135909116906040013561050f565b34801561022157600080fd5b5061022a6105d8565b6040805160ff9092168252519081900360200190f35b34801561024c57600080fd5b506101976004803603604081101561026357600080fd5b50600160a060020a0381351690602001356105e1565b34801561028557600080fd5b506102a36004803603602081101561029c57600080fd5b5035610691565b005b3480156102b157600080fd5b506102a3600480360360408110156102c857600080fd5b50600160a060020a038135169060200135610739565b3480156102ea57600080fd5b506101c06004803603602081101561030157600080fd5b5035600160a060020a03166107e2565b34801561031d57600080fd5b506100e96107fd565b34801561033257600080fd5b506102a36004803603602081101561034957600080fd5b5035610858565b34801561035c57600080fd5b506101976004803603604081101561037357600080fd5b50600160a060020a0381351690602001356108fd565b34801561039557600080fd5b50610197600480360360408110156103ac57600080fd5b50600160a060020a038135169060200135610948565b3480156103ce57600080fd5b506101c0600480360360408110156103e557600080fd5b50600160a060020a038135811691602001351661095e565b6004805460408051602060026001851615610100026000190190941693909304601f810184900484028201840190925281815292918301828280156104835780601f1061045857610100808354040283529160200191610483565b820191906000526020600020905b81548152906001019060200180831161046657829003601f168201915b505050505081565b6000600160a060020a03831615156104a257600080fd5b336000818152600160209081526040808320600160a060020a03881680855290835292819020869055805186815290519293927f8c5be1e5ebec7d5bd14f71427d1e84f3dd0314c0f7b2291e5b200ac8c7c3b925929181900390910190a350600192915050565b60025490565b600160a060020a0383166000908152600160209081526040808320338452909152812054610543908363ffffffff61098916565b600160a060020a038516600090815260016020908152604080832033845290915290205561057284848461099e565b600160a060020a0384166000818152600160209081526040808320338085529083529281902054815190815290519293927f8c5be1e5ebec7d5bd14f71427d1e84f3dd0314c0f7b2291e5b200ac8c7c3b925929181900390910190a35060019392505050565b60065460ff1681565b6000600160a060020a03831615156105f857600080fd5b336000908152600160209081526040808320600160a060020a038716845290915290205461062c908363ffffffff610a6b16565b336000818152600160209081526040808320600160a060020a0389168085529083529281902085905580519485525191937f8c5be1e5ebec7d5bd14f71427d1e84f3dd0314c0f7b2291e5b200ac8c7c3b925929081900390910190a350600192915050565b600354604080517fced3fb9c0000000000000000000000000000000000000000000000000000000081523360048201529051600160a060020a039092169163ced3fb9c91602480820192602092909190829003018186803b1580156106f557600080fd5b505afa158015610709573d6000803e3d6000fd5b505050506040513d602081101561071f57600080fd5b5051151561072c57600080fd5b6107363382610a84565b50565b600354604080517fced3fb9c0000000000000000000000000000000000000000000000000000000081523360048201529051600160a060020a039092169163ced3fb9c91602480820192602092909190829003018186803b15801561079d57600080fd5b505afa1580156107b1573d6000803e3d6000fd5b505050506040513d60208110156107c757600080fd5b505115156107d457600080fd5b6107de8282610b2d565b5050565b600160a060020a031660009081526020819052604090205490565b6005805460408051602060026001851615610100026000190190941693909304601f810184900484028201840190925281815292918301828280156104835780601f1061045857610100808354040283529160200191610483565b600354604080517fced3fb9c0000000000000000000000000000000000000000000000000000000081523360048201529051600160a060020a039092169163ced3fb9c91602480820192602092909190829003018186803b1580156108bc57600080fd5b505afa1580156108d0573d6000803e3d6000fd5b505050506040513d60208110156108e657600080fd5b505115156108f357600080fd5b6107363382610b2d565b6000600160a060020a038316151561091457600080fd5b336000908152600160209081526040808320600160a060020a038716845290915290205461062c908363ffffffff61098916565b600061095533848461099e565b50600192915050565b600160a060020a03918216600090815260016020908152604080832093909416825291909152205490565b60008282111561099857600080fd5b50900390565b600160a060020a03821615156109b357600080fd5b600160a060020a0383166000908152602081905260409020546109dc908263ffffffff61098916565b600160a060020a038085166000908152602081905260408082209390935590841681522054610a11908263ffffffff610a6b16565b600160a060020a038084166000818152602081815260409182902094909455805185815290519193928716927fddf252ad1be2c89b69c2b068fc378daa952ba7f163c4a11628f55a4df523b3ef92918290030190a3505050565b600082820183811015610a7d57600080fd5b9392505050565b600160a060020a0382161515610a9957600080fd5b600254610aac908263ffffffff61098916565b600255600160a060020a038216600090815260208190526040902054610ad8908263ffffffff61098916565b600160a060020a038316600081815260208181526040808320949094558351858152935191937fddf252ad1be2c89b69c2b068fc378daa952ba7f163c4a11628f55a4df523b3ef929081900390910190a35050565b600160a060020a0382161515610b4257600080fd5b600254610b55908263ffffffff610a6b16565b600255600160a060020a038216600090815260208190526040902054610b81908263ffffffff610a6b16565b600160a060020a0383166000818152602081815260408083209490945583518581529351929391927fddf252ad1be2c89b69c2b068fc378daa952ba7f163c4a11628f55a4df523b3ef9281900390910190a3505056fea165627a7a723058205c643caf4c645324caa11600b5c989f55de145d0466f3112d3bdc1a2e1ddea640029",
  "source": "pragma solidity ^0.5.0;\n\nimport \"openzeppelin-solidity/contracts/token/ERC20/ERC20.sol\";\nimport \"../base/Authorizable.sol\";\n\n/** @title KosuToken\n    @author Freydal\n*/\ncontract KosuToken is ERC20, Authorizable {\n\n    string public name = \"KOSU\";\n    string public symbol = \"KOSU\";\n    uint8 public decimals = 18;\n\n    /** @dev Deploy a new ERC20 Token\n        @notice Deploy a new ERC20 Token\n    */\n    constructor(address _auth) Authorizable(_auth) public {\n    }\n\n    /** @dev Burn tokens\n        @notice Burn tokens\n        @param amount Number of tokens to destroy.\n    */\n    function burn(uint amount) public isAuthorized {\n        _burn(msg.sender, amount);\n    }\n\n    /** @dev Mint tokens\n        @notice Mint tokens\n        @param amount Number of tokens to create.\n    */\n    function mint(uint amount) public isAuthorized {\n        _mint(msg.sender, amount);\n    }\n\n    /** @dev Mint tokens to specified address\n        @notice Mint tokens to specified address\n        @param _address Address to receive tokens.\n        @param amount Number of tokens to create.\n    */\n    function mintTo(address _address, uint amount) public isAuthorized {\n        _mint(_address, amount);\n    }\n}\n",
  "sourcePath": "/Users/freydal/IdeaProjects/kosu-monorepo/packages/solidity/kosu-system-contracts/contracts/lib/KosuToken.sol",
  "compiler": {
    "name": "solc",
    "version": "0.5.0+commit.1d4f565a.Emscripten.clang"
  },
  "schemaVersion": "3.0.6",
  "updatedAt": "2019-04-22T21:51:14.533Z",
  "devdoc": {
    "author": "Freydal",
    "methods": {
      "allowance(address,address)": {
        "details": "Function to check the amount of tokens that an owner allowed to a spender.",
        "params": {
          "owner": "address The address which owns the funds.",
          "spender": "address The address which will spend the funds."
        },
        "return": "A uint256 specifying the amount of tokens still available for the spender."
      },
      "approve(address,uint256)": {
        "details": "Approve the passed address to spend the specified amount of tokens on behalf of msg.sender. Beware that changing an allowance with this method brings the risk that someone may use both the old and the new allowance by unfortunate transaction ordering. One possible solution to mitigate this race condition is to first reduce the spender's allowance to 0 and set the desired value afterwards: https://github.com/ethereum/EIPs/issues/20#issuecomment-263524729",
        "params": {
          "spender": "The address which will spend the funds.",
          "value": "The amount of tokens to be spent."
        }
      },
      "balanceOf(address)": {
        "details": "Gets the balance of the specified address.",
        "params": {
          "owner": "The address to query the balance of."
        },
        "return": "An uint256 representing the amount owned by the passed address."
      },
      "burn(uint256)": {
        "details": "Burn tokens",
        "params": {
          "amount": "Number of tokens to destroy."
        }
      },
      "constructor": {
        "details": "Deploy a new ERC20 Token"
      },
      "decreaseAllowance(address,uint256)": {
        "details": "Decrease the amount of tokens that an owner allowed to a spender. approve should be called when allowed_[_spender] == 0. To decrement allowed value is better to use this function to avoid 2 calls (and wait until the first transaction is mined) From MonolithDAO Token.sol Emits an Approval event.",
        "params": {
          "spender": "The address which will spend the funds.",
          "subtractedValue": "The amount of tokens to decrease the allowance by."
        }
      },
      "increaseAllowance(address,uint256)": {
        "details": "Increase the amount of tokens that an owner allowed to a spender. approve should be called when allowed_[_spender] == 0. To increment allowed value is better to use this function to avoid 2 calls (and wait until the first transaction is mined) From MonolithDAO Token.sol Emits an Approval event.",
        "params": {
          "addedValue": "The amount of tokens to increase the allowance by.",
          "spender": "The address which will spend the funds."
        }
      },
      "mint(uint256)": {
        "details": "Mint tokens",
        "params": {
          "amount": "Number of tokens to create."
        }
      },
      "mintTo(address,uint256)": {
        "details": "Mint tokens to specified address",
        "params": {
          "_address": "Address to receive tokens.",
          "amount": "Number of tokens to create."
        }
      },
      "totalSupply()": {
        "details": "Total number of tokens in existence"
      },
      "transfer(address,uint256)": {
        "details": "Transfer token for a specified address",
        "params": {
          "to": "The address to transfer to.",
          "value": "The amount to be transferred."
        }
      },
      "transferFrom(address,address,uint256)": {
        "details": "Transfer tokens from one address to another. Note that while this function emits an Approval event, this is not required as per the specification, and other compliant implementations may not emit the event.",
        "params": {
          "from": "address The address which you want to send tokens from",
          "to": "address The address which you want to transfer to",
          "value": "uint256 the amount of tokens to be transferred"
        }
      }
    },
    "title": "KosuToken"
  },
  "userdoc": {
    "methods": {
      "burn(uint256)": {
        "notice": "Burn tokens"
      },
      "constructor": "Deploy a new ERC20 Token",
      "mint(uint256)": {
        "notice": "Mint tokens"
      },
      "mintTo(address,uint256)": {
        "notice": "Mint tokens to specified address"
      }
    }
  }
}