{
  "contractName": "OrderGateway",
  "abi": [
    {
      "inputs": [],
      "payable": false,
      "stateMutability": "nonpayable",
      "type": "constructor",
      "signature": "constructor"
    },
    {
      "anonymous": false,
      "inputs": [
        {
          "indexed": true,
          "name": "subContract",
          "type": "address"
        },
        {
          "indexed": false,
          "name": "id",
          "type": "string"
        }
      ],
      "name": "Participation",
      "type": "event",
      "signature": "0xf15a3385be02cfe1791afaad3d508c690aa213a79121494cc38bcf2468daece4"
    },
    {
      "constant": false,
      "inputs": [
        {
          "name": "subContract",
          "type": "address"
        },
        {
          "name": "id",
          "type": "string"
        },
        {
          "name": "makerData",
          "type": "bytes32[]"
        },
        {
          "name": "takerData",
          "type": "bytes32[]"
        }
      ],
      "name": "participate",
      "outputs": [
        {
          "name": "",
          "type": "bool"
        }
      ],
      "payable": false,
      "stateMutability": "nonpayable",
      "type": "function",
      "signature": "0x7cd49414"
    },
    {
      "constant": true,
      "inputs": [
        {
          "name": "subContract",
          "type": "address"
        },
        {
          "name": "makerData",
          "type": "bytes32[]"
        }
      ],
      "name": "isValid",
      "outputs": [
        {
          "name": "",
          "type": "bool"
        }
      ],
      "payable": false,
      "stateMutability": "view",
      "type": "function",
      "signature": "0x0fc92096"
    },
    {
      "constant": true,
      "inputs": [
        {
          "name": "subContract",
          "type": "address"
        },
        {
          "name": "makerData",
          "type": "bytes32[]"
        }
      ],
      "name": "amountRemaining",
      "outputs": [
        {
          "name": "",
          "type": "uint256"
        }
      ],
      "payable": false,
      "stateMutability": "view",
      "type": "function",
      "signature": "0x1e7fa008"
    },
    {
      "constant": true,
      "inputs": [
        {
          "name": "subContract",
          "type": "address"
        }
      ],
      "name": "makerArguments",
      "outputs": [
        {
          "name": "",
          "type": "string"
        }
      ],
      "payable": false,
      "stateMutability": "view",
      "type": "function",
      "signature": "0x48042e0b"
    },
    {
      "constant": true,
      "inputs": [
        {
          "name": "subContract",
          "type": "address"
        }
      ],
      "name": "takerArguments",
      "outputs": [
        {
          "name": "",
          "type": "string"
        }
      ],
      "payable": false,
      "stateMutability": "view",
      "type": "function",
      "signature": "0x0a516805"
    }
  ],
  "bytecode": "0x608060405234801561001057600080fd5b506108b4806100206000396000f3fe6080604052600436106100535763ffffffff60e060020a6000350416630a51680581146100585780630fc92096146101005780631e7fa008146101d457806348042e0b146102a65780637cd49414146102d9575b600080fd5b34801561006457600080fd5b5061008b6004803603602081101561007b57600080fd5b5035600160a060020a03166104a4565b6040805160208082528351818301528351919283929083019185019080838360005b838110156100c55781810151838201526020016100ad565b50505050905090810190601f1680156100f25780820380516001836020036101000a031916815260200191505b509250505060405180910390f35b34801561010c57600080fd5b506101c06004803603604081101561012357600080fd5b600160a060020a03823516919081019060408101602082013564010000000081111561014e57600080fd5b82018360208201111561016057600080fd5b8035906020019184602083028401116401000000008311171561018257600080fd5b919080806020026020016040519081016040528093929190818152602001838360200280828437600092019190915250929550610570945050505050565b604080519115158252519081900360200190f35b3480156101e057600080fd5b50610294600480360360408110156101f757600080fd5b600160a060020a03823516919081019060408101602082013564010000000081111561022257600080fd5b82018360208201111561023457600080fd5b8035906020019184602083028401116401000000008311171561025657600080fd5b91908080602002602001604051908101604052809392919081815260200183836020028082843760009201919091525092955061062a945050505050565b60408051918252519081900360200190f35b3480156102b257600080fd5b5061008b600480360360208110156102c957600080fd5b5035600160a060020a031661068d565b3480156102e557600080fd5b506101c0600480360360808110156102fc57600080fd5b600160a060020a03823516919081019060408101602082013564010000000081111561032757600080fd5b82018360208201111561033957600080fd5b8035906020019184600183028401116401000000008311171561035b57600080fd5b91908080601f01602080910402602001604051908101604052809392919081815260200183838082843760009201919091525092959493602081019350359150506401000000008111156103ae57600080fd5b8201836020820111156103c057600080fd5b803590602001918460208302840111640100000000831117156103e257600080fd5b919080806020026020016040519081016040528093929190818152602001838360200280828437600092019190915250929594936020810193503591505064010000000081111561043257600080fd5b82018360208201111561044457600080fd5b8035906020019184602083028401116401000000008311171561046657600080fd5b9190808060200260200160405190810160405280939291908181526020018383602002808284376000920191909152509295506106cb945050505050565b606081600160a060020a031663df3ee9b76040518163ffffffff1660e060020a02815260040160006040518083038186803b1580156104e257600080fd5b505afa1580156104f6573d6000803e3d6000fd5b505050506040513d6000823e601f3d908101601f19168201604052602081101561051f57600080fd5b81019080805164010000000081111561053757600080fd5b8201602081018481111561054a57600080fd5b815164010000000081118282018710171561056457600080fd5b50909695505050505050565b600082600160a060020a031663f56f516f836040518263ffffffff1660e060020a0281526004018080602001828103825283818151815260200191508051906020019060200280838360005b838110156105d45781810151838201526020016105bc565b505050509050019250505060206040518083038186803b1580156105f757600080fd5b505afa15801561060b573d6000803e3d6000fd5b505050506040513d602081101561062157600080fd5b50519392505050565b600082600160a060020a03166339d396b5836040518263ffffffff1660e060020a028152600401808060200182810382528381815181526020019150805190602001906020028083836000838110156105d45781810151838201526020016105bc565b606081600160a060020a031663e79d2ed86040518163ffffffff1660e060020a02815260040160006040518083038186803b1580156104e257600080fd5b600084600160a060020a03167ff15a3385be02cfe1791afaad3d508c690aa213a79121494cc38bcf2468daece4856040518080602001828103825283818151815260200191508051906020019080838360005b8381101561073657818101518382015260200161071e565b50505050905090810190601f1680156107635780820380516001836020036101000a031916815260200191505b509250505060405180910390a2604080517fea9960d800000000000000000000000000000000000000000000000000000000815260048101918252845160448201528451600160a060020a0388169263ea9960d892879287929182916024820191606401906020808801910280838360005b838110156107ed5781810151838201526020016107d5565b50505050905001838103825284818151815260200191508051906020019060200280838360005b8381101561082c578181015183820152602001610814565b50505050905001945050505050602060405180830381600087803b15801561085357600080fd5b505af1158015610867573d6000803e3d6000fd5b505050506040513d602081101561087d57600080fd5b50519594505050505056fea165627a7a7230582032258713d68ae1023b14b64d69ac774d02fb36dd4b80a7f0e71fb1ecd15778820029",
  "source": "pragma solidity ^0.5.0;\n\nimport \"@kosu/subcontract-sdk/contracts/SubContract.sol\";\n\n/** @title OrderGateway\n    @author Freydal\n*/\ncontract OrderGateway {\n\n    event Participation(address indexed subContract, string id);\n\n    /** @dev Creates a new OrderGateway\n        @notice Creates a new OrderGateway\n    */\n    constructor() public {\n    }\n\n    /** @dev Calls participate on the provided subContract.\n        @notice Calls participate on the provided subContract.\n        @param subContract Address of contract implementing the SubContract interface.\n        @param id Id of order assigned when passing though the OrderStream\n        @param makerData Encoded maker values for Order encoded based on the makerArguments.\n        @param takerData Encoded taker values for Order encoded based on the takerArguments.\n        @return Boolean representing success of transaction.\n    */\n    function participate(address subContract, string memory id, bytes32[] memory makerData, bytes32[] memory takerData) public returns (bool) {\n        emit Participation(subContract, id);\n        return SubContract(subContract).participate(makerData, takerData);\n    }\n\n    /** @dev Calls isValid on provided subContract.\n        @notice Calls isValid on provided subContract.\n        @param subContract Address of contract implementing the SubContract interface.\n        @param makerData Encoded maker values for Order encoded based on the makerArguments.\n        @return Boolean representing the validity of makerData\n    */\n    function isValid(address subContract, bytes32[] memory makerData) public view returns (bool) {\n        return SubContract(subContract).isValid(makerData);\n    }\n\n    /** @dev Calls amountRemaining on provided subContract.\n        @notice Calls amountRemaining on provided subContract.\n        @param subContract Address of contract implementing the SubContract interface.\n        @param makerData Encoded maker values for Order encoded based on the makerArguments.\n        @return Quantity of available asset for Order encoded in makerData.\n    */\n    function amountRemaining(address subContract, bytes32[] memory makerData) public view returns (uint) {\n        return SubContract(subContract).amountRemaining(makerData);\n    }\n\n    /** @dev Calls makerArguments on provided subContract.\n        @notice Calls makerArguments on provided subContract.\n        @param subContract Address of contract implementing the SubContract interface.\n        @return String encoded JSON representation of subContract maker arguments\n    */\n    function makerArguments(address subContract) public view returns (string memory) {\n        return SubContract(subContract).makerArguments();\n    }\n\n    /** @dev Calls takerArguments on provided subContract.\n        @notice Calls takerArguments on provided subContract.\n        @param subContract Address of contract implementing the SubContract interface.\n        @return String encoded JSON representation of subContract taker arguments\n    */\n    function takerArguments(address subContract) public view returns (string memory) {\n        return SubContract(subContract).takerArguments();\n    }\n}\n",
  "sourcePath": "/Users/freydal/IdeaProjects/kosu-monorepo/packages/solidity/kosu-system-contracts/contracts/external/OrderGateway.sol",
  "compiler": {
    "name": "solc",
    "version": "0.5.0+commit.1d4f565a.Emscripten.clang"
  },
  "schemaVersion": "3.0.6",
  "updatedAt": "2019-04-22T21:47:46.344Z",
  "devdoc": {
    "author": "Freydal",
    "methods": {
      "amountRemaining(address,bytes32[])": {
        "details": "Calls amountRemaining on provided subContract.",
        "params": {
          "makerData": "Encoded maker values for Order encoded based on the makerArguments.",
          "subContract": "Address of contract implementing the SubContract interface."
        },
        "return": "Quantity of available asset for Order encoded in makerData."
      },
      "constructor": {
        "details": "Creates a new OrderGateway"
      },
      "isValid(address,bytes32[])": {
        "details": "Calls isValid on provided subContract.",
        "params": {
          "makerData": "Encoded maker values for Order encoded based on the makerArguments.",
          "subContract": "Address of contract implementing the SubContract interface."
        },
        "return": "Boolean representing the validity of makerData"
      },
      "makerArguments(address)": {
        "details": "Calls makerArguments on provided subContract.",
        "params": {
          "subContract": "Address of contract implementing the SubContract interface."
        },
        "return": "String encoded JSON representation of subContract maker arguments"
      },
      "participate(address,string,bytes32[],bytes32[])": {
        "details": "Calls participate on the provided subContract.",
        "params": {
          "id": "Id of order assigned when passing though the OrderStream",
          "makerData": "Encoded maker values for Order encoded based on the makerArguments.",
          "subContract": "Address of contract implementing the SubContract interface.",
          "takerData": "Encoded taker values for Order encoded based on the takerArguments."
        },
        "return": "Boolean representing success of transaction."
      },
      "takerArguments(address)": {
        "details": "Calls takerArguments on provided subContract.",
        "params": {
          "subContract": "Address of contract implementing the SubContract interface."
        },
        "return": "String encoded JSON representation of subContract taker arguments"
      }
    },
    "title": "OrderGateway"
  },
  "userdoc": {
    "methods": {
      "amountRemaining(address,bytes32[])": {
        "notice": "Calls amountRemaining on provided subContract."
      },
      "constructor": "Creates a new OrderGateway",
      "isValid(address,bytes32[])": {
        "notice": "Calls isValid on provided subContract."
      },
      "makerArguments(address)": {
        "notice": "Calls makerArguments on provided subContract."
      },
      "participate(address,string,bytes32[],bytes32[])": {
        "notice": "Calls participate on the provided subContract."
      },
      "takerArguments(address)": {
        "notice": "Calls takerArguments on provided subContract."
      }
    }
  }
}