{
  "contractName": "PosterRegistryProxy",
  "abi": [
    {
      "inputs": [
        {
          "name": "implementation",
          "type": "address"
        },
        {
          "name": "auth",
          "type": "address"
        }
      ],
      "payable": false,
      "stateMutability": "nonpayable",
      "type": "constructor",
      "signature": "constructor"
    },
    {
      "constant": false,
      "inputs": [
        {
          "name": "implementation",
          "type": "address"
        }
      ],
      "name": "setImplementation",
      "outputs": [],
      "payable": false,
      "stateMutability": "nonpayable",
      "type": "function",
      "signature": "0xd784d426"
    },
    {
      "constant": true,
      "inputs": [],
      "name": "tokensContributed",
      "outputs": [
        {
          "name": "",
          "type": "uint256"
        }
      ],
      "payable": false,
      "stateMutability": "view",
      "type": "function",
      "signature": "0xd244ac32"
    },
    {
      "constant": true,
      "inputs": [],
      "name": "token",
      "outputs": [
        {
          "name": "",
          "type": "address"
        }
      ],
      "payable": false,
      "stateMutability": "view",
      "type": "function",
      "signature": "0xfc0c546a"
    },
    {
      "constant": true,
      "inputs": [],
      "name": "treasury",
      "outputs": [
        {
          "name": "",
          "type": "address"
        }
      ],
      "payable": false,
      "stateMutability": "view",
      "type": "function",
      "signature": "0x61d027b3"
    },
    {
      "constant": true,
      "inputs": [
        {
          "name": "a",
          "type": "address"
        }
      ],
      "name": "tokensRegisteredFor",
      "outputs": [
        {
          "name": "",
          "type": "uint256"
        }
      ],
      "payable": false,
      "stateMutability": "view",
      "type": "function",
      "signature": "0xa5988a6f"
    },
    {
      "constant": false,
      "inputs": [
        {
          "name": "amount",
          "type": "uint256"
        }
      ],
      "name": "registerTokens",
      "outputs": [],
      "payable": false,
      "stateMutability": "nonpayable",
      "type": "function",
      "signature": "0xcbb7a7c0"
    },
    {
      "constant": false,
      "inputs": [
        {
          "name": "amount",
          "type": "uint256"
        }
      ],
      "name": "releaseTokens",
      "outputs": [],
      "payable": false,
      "stateMutability": "nonpayable",
      "type": "function",
      "signature": "0x4b0babdd"
    }
  ],
  "bytecode": "0x608060405234801561001057600080fd5b506040516040806105f48339810180604052604081101561003057600080fd5b50805160209091015160008054600160a060020a03928316600160a060020a03199182161790915560018054929093169116179055610580806100746000396000f3fe6080604052600436106100825763ffffffff7c01000000000000000000000000000000000000000000000000000000006000350416634b0babdd811461008757806361d027b3146100b3578063a5988a6f146100e4578063cbb7a7c014610129578063d244ac3214610153578063d784d42614610168578063fc0c546a1461019b575b600080fd5b34801561009357600080fd5b506100b1600480360360208110156100aa57600080fd5b50356101b0565b005b3480156100bf57600080fd5b506100c8610237565b60408051600160a060020a039092168252519081900360200190f35b3480156100f057600080fd5b506101176004803603602081101561010757600080fd5b5035600160a060020a03166102c6565b60408051918252519081900360200190f35b34801561013557600080fd5b506100b16004803603602081101561014c57600080fd5b5035610362565b34801561015f57600080fd5b506101176103ce565b34801561017457600080fd5b506100b16004803603602081101561018b57600080fd5b5035600160a060020a031661042c565b3480156101a757600080fd5b506100c86104f6565b600154604080517ff40d71f1000000000000000000000000000000000000000000000000000000008152336004820152602481018490529051600160a060020a039092169163f40d71f19160448082019260009290919082900301818387803b15801561021c57600080fd5b505af1158015610230573d6000803e3d6000fd5b5050505050565b600154604080517f61d027b30000000000000000000000000000000000000000000000000000000081529051600092600160a060020a0316916361d027b3916004808301926020929190829003018186803b15801561029557600080fd5b505afa1580156102a9573d6000803e3d6000fd5b505050506040513d60208110156102bf57600080fd5b5051905090565b600154604080517fa5988a6f000000000000000000000000000000000000000000000000000000008152600160a060020a0384811660048301529151600093929092169163a5988a6f91602480820192602092909190829003018186803b15801561033057600080fd5b505afa158015610344573d6000803e3d6000fd5b505050506040513d602081101561035a57600080fd5b505192915050565b600154604080517f89c966c5000000000000000000000000000000000000000000000000000000008152336004820152602481018490529051600160a060020a03909216916389c966c59160448082019260009290919082900301818387803b15801561021c57600080fd5b600154604080517fd244ac320000000000000000000000000000000000000000000000000000000081529051600092600160a060020a03169163d244ac32916004808301926020929190829003018186803b15801561029557600080fd5b600054604080517fced3fb9c0000000000000000000000000000000000000000000000000000000081523360048201529051600160a060020a039092169163ced3fb9c91602480820192602092909190829003018186803b15801561049057600080fd5b505afa1580156104a4573d6000803e3d6000fd5b505050506040513d60208110156104ba57600080fd5b505115156104c757600080fd5b6001805473ffffffffffffffffffffffffffffffffffffffff1916600160a060020a0392909216919091179055565b600154604080517ffc0c546a0000000000000000000000000000000000000000000000000000000081529051600092600160a060020a03169163fc0c546a916004808301926020929190829003018186803b15801561029557600080fdfea165627a7a72305820c5afdaf8d7568fdb800fa2bf2dc8ef58277e29379629fe05f14d02f83bef96430029",
  "source": "pragma solidity ^0.5.0;\n\nimport \"../poster/IPosterRegistry.sol\";\nimport \"../base/Authorizable.sol\";\n\n/** @title PosterRegistryProxy\n    @author Freydal\n*/\ncontract PosterRegistryProxy is Authorizable {\n\n    IPosterRegistry registry;\n\n    /** @dev Creates a Proxy for a PosterRegistry. Accepts an initial implementation that can be overwritten if a replacement is deployed.\n        @notice Creates a Proxy for a PosterRegistry. Accepts an initial implementation that can be overwritten if a replacement is deployed.\n        @param implementation deployed implementation of PosterRegistry.\n        @param auth AuthorizedAddresses deployed address.\n    */\n    constructor(address implementation, address auth) Authorizable(auth) public {\n        registry = IPosterRegistry(implementation);\n    }\n\n    /** @dev Set a new PosterRegistry implementation if a replacement is deployed.\n        @notice Set a new PosterRegistry implementation if a replacement is deployed.\n        @param implementation Deployed address for replacement PosterRegistry implementation.\n    */\n    function setImplementation(address implementation) isAuthorized public {\n        registry = IPosterRegistry(implementation);\n    }\n\n    /** @dev Reads the current registries tokensContributed.\n        @notice Reads the current registries tokensContributed.\n        @return Total number of tokens contributed the the current registry.\n    */\n    function tokensContributed() public view returns (uint) {\n        return registry.tokensContributed();\n    }\n\n    /** @dev Reads the current registries token.\n        @notice Reads the current registries token.\n        @return Address of configured ERC20 token.\n    */\n    function token() public view returns (address) {\n        return registry.token();\n    }\n\n    /** @dev Reads the current registries Treasury address.\n        @notice Reads the current registries Treasury address.\n        @return Address of configured treasury.\n    */\n    function treasury() public view returns (address) {\n        return registry.treasury();\n    }\n\n    /** @dev Reads the current registries tokens registered for the supplied address.\n        @notice Reads the current registries tokens registered for the supplied address.\n        @param a Address of user\n        @return The current number of tokens contributed by the address.\n    */\n    function tokensRegisteredFor(address a) public view returns (uint) {\n        return registry.tokensRegisteredFor(a);\n    }\n\n    /** @dev Calls registerTokens on the current registry.\n        @notice Calls registerTokens on the current registry.\n        @param amount Desired amount of tokens to register.\n    */\n    function registerTokens(uint amount) external {\n        registry.registerTokens(msg.sender, amount);\n    }\n\n    /** @dev Calls releaseTokens for the current registry.\n        @notice Calls releaseTokens for the current registry.\n        @param amount Desired amount of tokens to release.\n    */\n    function releaseTokens(uint amount) external {\n        registry.releaseTokens(msg.sender, amount);\n    }\n}\n\n\n\n",
  "sourcePath": "/Users/freydal/IdeaProjects/kosu-monorepo/packages/solidity/kosu-system-contracts/contracts/external/PosterRegistryProxy.sol",
  "compiler": {
    "name": "solc",
    "version": "0.5.0+commit.1d4f565a.Emscripten.clang"
  },
  "schemaVersion": "3.0.6",
  "updatedAt": "2019-04-22T21:54:19.430Z",
  "devdoc": {
    "author": "Freydal",
    "methods": {
      "constructor": {
        "details": "Creates a Proxy for a PosterRegistry. Accepts an initial implementation that can be overwritten if a replacement is deployed.",
        "params": {
          "auth": "AuthorizedAddresses deployed address.",
          "implementation": "deployed implementation of PosterRegistry."
        }
      },
      "registerTokens(uint256)": {
        "details": "Calls registerTokens on the current registry.",
        "params": {
          "amount": "Desired amount of tokens to register."
        }
      },
      "releaseTokens(uint256)": {
        "details": "Calls releaseTokens for the current registry.",
        "params": {
          "amount": "Desired amount of tokens to release."
        }
      },
      "setImplementation(address)": {
        "details": "Set a new PosterRegistry implementation if a replacement is deployed.",
        "params": {
          "implementation": "Deployed address for replacement PosterRegistry implementation."
        }
      },
      "token()": {
        "details": "Reads the current registries token.",
        "return": "Address of configured ERC20 token."
      },
      "tokensContributed()": {
        "details": "Reads the current registries tokensContributed.",
        "return": "Total number of tokens contributed the the current registry."
      },
      "tokensRegisteredFor(address)": {
        "details": "Reads the current registries tokens registered for the supplied address.",
        "params": {
          "a": "Address of user"
        },
        "return": "The current number of tokens contributed by the address."
      },
      "treasury()": {
        "details": "Reads the current registries Treasury address.",
        "return": "Address of configured treasury."
      }
    },
    "title": "PosterRegistryProxy"
  },
  "userdoc": {
    "methods": {
      "constructor": "Creates a Proxy for a PosterRegistry. Accepts an initial implementation that can be overwritten if a replacement is deployed.",
      "registerTokens(uint256)": {
        "notice": "Calls registerTokens on the current registry."
      },
      "releaseTokens(uint256)": {
        "notice": "Calls releaseTokens for the current registry."
      },
      "setImplementation(address)": {
        "notice": "Set a new PosterRegistry implementation if a replacement is deployed."
      },
      "token()": {
        "notice": "Reads the current registries token."
      },
      "tokensContributed()": {
        "notice": "Reads the current registries tokensContributed."
      },
      "tokensRegisteredFor(address)": {
        "notice": "Reads the current registries tokens registered for the supplied address."
      },
      "treasury()": {
        "notice": "Reads the current registries Treasury address."
      }
    }
  }
}