{
  "contractName": "Treasury",
  "abi": [
    {
      "constant": true,
      "inputs": [],
      "name": "digm",
      "outputs": [
        {
          "name": "",
          "type": "address"
        }
      ],
      "payable": false,
      "stateMutability": "view",
      "type": "function",
      "signature": "0xfe2ada6b"
    },
    {
      "inputs": [
        {
          "name": "digmAddress",
          "type": "address"
        },
        {
          "name": "auth",
          "type": "address"
        }
      ],
      "payable": false,
      "stateMutability": "nonpayable",
      "type": "constructor",
      "signature": "constructor"
    },
    {
      "constant": false,
      "inputs": [
        {
          "name": "amount",
          "type": "uint256"
        }
      ],
      "name": "deposit",
      "outputs": [],
      "payable": false,
      "stateMutability": "nonpayable",
      "type": "function",
      "signature": "0xb6b55f25"
    },
    {
      "constant": false,
      "inputs": [
        {
          "name": "account",
          "type": "address"
        },
        {
          "name": "amount",
          "type": "uint256"
        }
      ],
      "name": "contractDeposit",
      "outputs": [],
      "payable": false,
      "stateMutability": "nonpayable",
      "type": "function",
      "signature": "0x98b9e7f1"
    },
    {
      "constant": false,
      "inputs": [
        {
          "name": "amount",
          "type": "uint256"
        }
      ],
      "name": "withdraw",
      "outputs": [],
      "payable": false,
      "stateMutability": "nonpayable",
      "type": "function",
      "signature": "0x2e1a7d4d"
    },
    {
      "constant": false,
      "inputs": [
        {
          "name": "account",
          "type": "address"
        },
        {
          "name": "amount",
          "type": "uint256"
        }
      ],
      "name": "contractWithdraw",
      "outputs": [],
      "payable": false,
      "stateMutability": "nonpayable",
      "type": "function",
      "signature": "0x82f1f08d"
    },
    {
      "constant": false,
      "inputs": [
        {
          "name": "account",
          "type": "address"
        },
        {
          "name": "amount",
          "type": "uint256"
        }
      ],
      "name": "claimTokens",
      "outputs": [],
      "payable": false,
      "stateMutability": "nonpayable",
      "type": "function",
      "signature": "0xfe417fa5"
    },
    {
      "constant": false,
      "inputs": [
        {
          "name": "account",
          "type": "address"
        },
        {
          "name": "amount",
          "type": "uint256"
        }
      ],
      "name": "releaseTokens",
      "outputs": [],
      "payable": false,
      "stateMutability": "nonpayable",
      "type": "function",
      "signature": "0xf40d71f1"
    },
    {
      "constant": false,
      "inputs": [
        {
          "name": "account",
          "type": "address"
        },
        {
          "name": "amount",
          "type": "uint256"
        }
      ],
      "name": "confiscate",
      "outputs": [],
      "payable": false,
      "stateMutability": "nonpayable",
      "type": "function",
      "signature": "0x47298f82"
    },
    {
      "constant": false,
      "inputs": [
        {
          "name": "account",
          "type": "address"
        },
        {
          "name": "amount",
          "type": "uint256"
        }
      ],
      "name": "award",
      "outputs": [],
      "payable": false,
      "stateMutability": "nonpayable",
      "type": "function",
      "signature": "0x5d8a776e"
    },
    {
      "constant": false,
      "inputs": [
        {
          "name": "account",
          "type": "address"
        },
        {
          "name": "amount",
          "type": "uint256"
        }
      ],
      "name": "updateBalance",
      "outputs": [],
      "payable": false,
      "stateMutability": "nonpayable",
      "type": "function",
      "signature": "0xe0b1cccb"
    },
    {
      "constant": false,
      "inputs": [
        {
          "name": "account",
          "type": "address"
        },
        {
          "name": "amount",
          "type": "int256"
        }
      ],
      "name": "adjustBalance",
      "outputs": [],
      "payable": false,
      "stateMutability": "nonpayable",
      "type": "function",
      "signature": "0xecbc8fa7"
    },
    {
      "constant": false,
      "inputs": [
        {
          "name": "account",
          "type": "address"
        },
        {
          "name": "amount",
          "type": "uint256"
        }
      ],
      "name": "burnFrom",
      "outputs": [],
      "payable": false,
      "stateMutability": "nonpayable",
      "type": "function",
      "signature": "0x79cc6790"
    },
    {
      "constant": true,
      "inputs": [
        {
          "name": "account",
          "type": "address"
        }
      ],
      "name": "systemBalance",
      "outputs": [
        {
          "name": "",
          "type": "uint256"
        }
      ],
      "payable": false,
      "stateMutability": "view",
      "type": "function",
      "signature": "0x5121220c"
    },
    {
      "constant": true,
      "inputs": [
        {
          "name": "account",
          "type": "address"
        }
      ],
      "name": "currentBalance",
      "outputs": [
        {
          "name": "",
          "type": "uint256"
        }
      ],
      "payable": false,
      "stateMutability": "view",
      "type": "function",
      "signature": "0x9e546c38"
    }
  ],
  "bytecode": "0x608060405234801561001057600080fd5b50604051604080610f5e8339810180604052604081101561003057600080fd5b50805160209091015160008054600160a060020a03928316600160a060020a03199182161790915560018054929093169116179055610eea806100746000396000f3fe6080604052600436106100cf5763ffffffff7c01000000000000000000000000000000000000000000000000000000006000350416632e1a7d4d81146100d457806347298f82146101005780635121220c146101395780635d8a776e1461017e57806379cc6790146101b757806382f1f08d146101f057806398b9e7f1146102295780639e546c3814610262578063b6b55f2514610295578063e0b1cccb146102bf578063ecbc8fa7146102f8578063f40d71f114610331578063fe2ada6b1461036a578063fe417fa51461039b575b600080fd5b3480156100e057600080fd5b506100fe600480360360208110156100f757600080fd5b50356103d4565b005b34801561010c57600080fd5b506100fe6004803603604081101561012357600080fd5b50600160a060020a0381351690602001356103e1565b34801561014557600080fd5b5061016c6004803603602081101561015c57600080fd5b5035600160a060020a031661048c565b60408051918252519081900360200190f35b34801561018a57600080fd5b506100fe600480360360408110156101a157600080fd5b50600160a060020a03813516906020013561049d565b3480156101c357600080fd5b506100fe600480360360408110156101da57600080fd5b50600160a060020a0381351690602001356105ff565b3480156101fc57600080fd5b506100fe6004803603604081101561021357600080fd5b50600160a060020a038135169060200135610728565b34801561023557600080fd5b506100fe6004803603604081101561024c57600080fd5b50600160a060020a0381351690602001356107b7565b34801561026e57600080fd5b5061016c6004803603602081101561028557600080fd5b5035600160a060020a0316610846565b3480156102a157600080fd5b506100fe600480360360208110156102b857600080fd5b5035610851565b3480156102cb57600080fd5b506100fe600480360360408110156102e257600080fd5b50600160a060020a03813516906020013561085b565b34801561030457600080fd5b506100fe6004803603604081101561031b57600080fd5b50600160a060020a038135169060200135610946565b34801561033d57600080fd5b506100fe6004803603604081101561035457600080fd5b50600160a060020a0381351690602001356109fa565b34801561037657600080fd5b5061037f610b3a565b60408051600160a060020a039092168252519081900360200190f35b3480156103a757600080fd5b506100fe600480360360408110156103be57600080fd5b50600160a060020a038135169060200135610b49565b6103de3382610c9d565b50565b6000546040805160e260020a6333b4fee70281523360048201529051600160a060020a039092169163ced3fb9c91602480820192602092909190829003018186803b15801561042f57600080fd5b505afa158015610443573d6000803e3d6000fd5b505050506040513d602081101561045957600080fd5b5051151561046657600080fd5b610488826104838361047786610d65565b9063ffffffff610d8016565b610d95565b5050565b600061049782610d65565b92915050565b6000546040805160e260020a6333b4fee70281523360048201529051600160a060020a039092169163ced3fb9c91602480820192602092909190829003018186803b1580156104eb57600080fd5b505afa1580156104ff573d6000803e3d6000fd5b505050506040513d602081101561051557600080fd5b5051151561052257600080fd5b600154604080517f23b872dd000000000000000000000000000000000000000000000000000000008152336004820152306024820152604481018490529051600160a060020a03909216916323b872dd916064808201926020929091908290030181600087803b15801561059557600080fd5b505af11580156105a9573d6000803e3d6000fd5b505050506040513d60208110156105bf57600080fd5b505115156105cc57600080fd5b6105ee826105e9836105dd86610db1565b9063ffffffff610dcc16565b610de5565b61048882610483836105dd86610d65565b6000546040805160e260020a6333b4fee70281523360048201529051600160a060020a039092169163ced3fb9c91602480820192602092909190829003018186803b15801561064d57600080fd5b505afa158015610661573d6000803e3d6000fd5b505050506040513d602081101561067757600080fd5b5051151561068457600080fd5b8061068e83610db1565b101561069957600080fd5b600154604080517f42966c68000000000000000000000000000000000000000000000000000000008152600481018490529051600160a060020a03909216916342966c689160248082019260009290919082900301818387803b1580156106ff57600080fd5b505af1158015610713573d6000803e3d6000fd5b50505050610466826105e98361047786610db1565b6000546040805160e260020a6333b4fee70281523360048201529051600160a060020a039092169163ced3fb9c91602480820192602092909190829003018186803b15801561077657600080fd5b505afa15801561078a573d6000803e3d6000fd5b505050506040513d60208110156107a057600080fd5b505115156107ad57600080fd5b6104888282610c9d565b6000546040805160e260020a6333b4fee70281523360048201529051600160a060020a039092169163ced3fb9c91602480820192602092909190829003018186803b15801561080557600080fd5b505afa158015610819573d6000803e3d6000fd5b505050506040513d602081101561082f57600080fd5b5051151561083c57600080fd5b6104888282610e01565b600061049782610db1565b6103de3382610e01565b6000546040805160e260020a6333b4fee70281523360048201529051600160a060020a039092169163ced3fb9c91602480820192602092909190829003018186803b1580156108a957600080fd5b505afa1580156108bd573d6000803e3d6000fd5b505050506040513d60208110156108d357600080fd5b505115156108e057600080fd5b60006108eb83610db1565b905081811115610919576000610907828463ffffffff610d8016565b90506109138482610c9d565b50610941565b81811015610941576000610933838363ffffffff610d8016565b905061093f8482610e01565b505b505050565b6000546040805160e260020a6333b4fee70281523360048201529051600160a060020a039092169163ced3fb9c91602480820192602092909190829003018186803b15801561099457600080fd5b505afa1580156109a8573d6000803e3d6000fd5b505050506040513d60208110156109be57600080fd5b505115156109cb57600080fd5b60008112156109e7576109e2828260001902610c9d565b610488565b6000811315610488576104888282610e01565b6000546040805160e260020a6333b4fee70281523360048201529051600160a060020a039092169163ced3fb9c91602480820192602092909190829003018186803b158015610a4857600080fd5b505afa158015610a5c573d6000803e3d6000fd5b505050506040513d6020811015610a7257600080fd5b50511515610a7f57600080fd5b600154604080517f23b872dd000000000000000000000000000000000000000000000000000000008152336004820152306024820152604481018490529051600160a060020a03909216916323b872dd916064808201926020929091908290030181600087803b158015610af257600080fd5b505af1158015610b06573d6000803e3d6000fd5b505050506040513d6020811015610b1c57600080fd5b50511515610b2957600080fd5b610488826105e9836105dd86610db1565b600154600160a060020a031681565b6000546040805160e260020a6333b4fee70281523360048201529051600160a060020a039092169163ced3fb9c91602480820192602092909190829003018186803b158015610b9757600080fd5b505afa158015610bab573d6000803e3d6000fd5b505050506040513d6020811015610bc157600080fd5b50511515610bce57600080fd5b80610bd883610db1565b1015610be857610be8828261085b565b600154604080517fa9059cbb000000000000000000000000000000000000000000000000000000008152336004820152602481018490529051600160a060020a039092169163a9059cbb916044808201926020929091908290030181600087803b158015610c5557600080fd5b505af1158015610c69573d6000803e3d6000fd5b505050506040513d6020811015610c7f57600080fd5b50511515610c8c57600080fd5b610488826105e98361047786610db1565b80610ca783610db1565b1015610cb257600080fd5b600154604080517fa9059cbb000000000000000000000000000000000000000000000000000000008152600160a060020a038581166004830152602482018590529151919092169163a9059cbb9160448083019260209291908290030181600087803b158015610d2157600080fd5b505af1158015610d35573d6000803e3d6000fd5b505050506040513d6020811015610d4b57600080fd5b50511515610d5857600080fd5b610c8c8261048383610477865b600160a060020a031660009081526003602052604090205490565b600082821115610d8f57600080fd5b50900390565b600160a060020a03909116600090815260036020526040902055565b600160a060020a031660009081526002602052604090205490565b600082820183811015610dde57600080fd5b9392505050565b600160a060020a03909116600090815260026020526040902055565b600154604080517f23b872dd000000000000000000000000000000000000000000000000000000008152600160a060020a03858116600483015230602483015260448201859052915191909216916323b872dd9160648083019260209291908290030181600087803b158015610e7657600080fd5b505af1158015610e8a573d6000803e3d6000fd5b505050506040513d6020811015610ea057600080fd5b50511515610ead57600080fd5b610b2982610483836105dd86610d6556fea165627a7a723058201088b4f490fd8c4baf7d7f5cb6b020aa19c14be1e2734319a7e58ea2ff726ddc0029",
  "source": "pragma solidity ^0.5.0;\n\nimport \"../base/Authorizable.sol\";\nimport \"../lib/KosuToken.sol\";\n\n/** @title Treasury\n    @author Freydal\n*/\ncontract Treasury is Authorizable {\n    using SafeMath for uint;\n\n    KosuToken public digm;\n    mapping(address => uint) private currentBalances;\n    mapping(address => uint) private systemBalances;\n\n    /** @dev Creates a new Treasury\n        @notice Creates a new Treasury\n        @param digmAddress The deployed KosuToken contract address\n        @param auth AuthorizedAddresses deployed address.\n    */\n    constructor(address digmAddress, address auth) Authorizable(auth) public {\n        digm = KosuToken(digmAddress);\n    }\n\n    /** @dev Deposits tokens into the treasury\n        @notice Deposits tokens into the treasury\n        @param amount Number of tokens to deposit\n    */\n    function deposit(uint amount) public {\n        _deposit(msg.sender, amount);\n    }\n\n    /** @dev Allows contracts to deposit\n        @notice Allows contracts to deposit\n        @param account User to deposit tokens for\n        @param amount Number of tokens to deposit\n    */\n    function contractDeposit(address account, uint amount) isAuthorized public {\n        _deposit(account, amount);\n    }\n\n    /** @dev Withdraw tokens from the treasury\n        @notice Withdraw tokens from the treasury\n        @param amount Number of tokens to withdraw\n    */\n    function withdraw(uint amount) public {\n        _withdraw(msg.sender, amount);\n    }\n\n    /** @dev Allows contracts to withdraw\n        @notice Allows contracts to withdraw\n        @param account User to withdraw tokens for\n        @param amount Number of tokens to withdraw\n    */\n    function contractWithdraw(address account, uint amount) isAuthorized public {\n        _withdraw(account, amount);\n    }\n\n    /** @dev Allows contracts to claim tokens\n        @notice Allows contracts to claim tokens\n        @param account User to claim tokens from\n        @param amount Number of tokens to claim\n    */\n    function claimTokens(address account, uint amount) isAuthorized public {\n        //Attempt to get more balance if balance is insufficient\n        if(getCurrentBalance(account) < amount) {\n          updateBalance(account, amount);\n        }\n\n        //Transfer to requesting contract and update balance held in contract\n        require(digm.transfer(msg.sender, amount));\n        setCurrentBalance(account, getCurrentBalance(account).sub(amount));\n    }\n\n    /** @dev Allows contracts to release tokens\n        @notice Allows contracts to release tokens\n        @param account User to release tokens to\n        @param amount Number of tokens to release\n    */\n    function releaseTokens(address account, uint amount) isAuthorized public {\n        //Transfer from requesting contract and update balance held in contract\n        require(digm.transferFrom(msg.sender, address(this), amount));\n        setCurrentBalance(account, getCurrentBalance(account).add(amount));\n    }\n\n    /** @dev Allows contracts to confiscate tokens the user has lost access to\n        @notice Allows contracts to confiscate tokens the user has lost access to\n        @param account User to confiscate tokens from\n        @param amount Number of tokens to confiscate\n    */\n    function confiscate(address account, uint amount) isAuthorized public {\n        //Remove the system balance\n        setSystemBalance(account, getSystemBalance(account).sub(amount));\n    }\n\n    /** @dev Allows contracts to be rewarded with new tokens\n        @notice Allows contracts to be rewarded with new tokens\n        @param account User to award tokens to\n        @param amount Number of tokens to award\n    */\n    function award(address account, uint amount) isAuthorized public {\n        //Transfer from requesting contract and update balance held in contract\n        require(digm.transferFrom(msg.sender, address(this), amount));\n        //Increase current balance\n        setCurrentBalance(account, getCurrentBalance(account).add(amount));\n        //Increase systemBalance these tokens are new to the user\n        setSystemBalance(account, getSystemBalance(account).add(amount));\n    }\n\n    /** @dev Allows contracts to set balance\n        @notice Allows contracts to set balance\n        @param account User to modify tokens for\n        @param amount Number of tokens to set to current balance\n    */\n    function updateBalance(address account, uint amount) isAuthorized public {\n        //Adjust balance to requested value.  Increase or decrease based on current balance\n        uint currentBalance = getCurrentBalance(account);\n        if(currentBalance > amount) {\n            uint amountToWithdraw = currentBalance.sub(amount);\n            _withdraw(account, amountToWithdraw);\n        } else if (currentBalance < amount) {\n            uint amountToDeposit = amount.sub(currentBalance);\n            _deposit(account, amountToDeposit);\n        }\n    }\n\n    /** @dev Allows contracts to change balance\n        @notice Allows contracts to change balance\n        @param account User to modify tokens for\n        @param amount Change to token balance\n    */\n    function adjustBalance(address account, int amount) isAuthorized public {\n        //Changes balance by the provided amount\n        if(amount < 0) {\n            _withdraw(account, uint(amount * -1));\n        } else if (amount > 0) {\n            _deposit(account, uint(amount));\n        }\n    }\n\n    function burnFrom(address account, uint amount) isAuthorized public {\n        require(getCurrentBalance(account) >= amount);\n        digm.burn(amount);\n        setCurrentBalance(account, getCurrentBalance(account).sub(amount));\n        setSystemBalance(account, getSystemBalance(account).sub(amount));\n    }\n\n\n/** @dev Reports the balance within the contract system for a user\n    @notice Reports the balance within the contract system for a user\n    @param account Account to report balance on\n    @return The number of tokens within the total contract system\n*/\n    function systemBalance(address account) public view returns (uint)  {\n        return getSystemBalance(account);\n    }\n\n    /** @dev Reports the balance held within the contract for a user\n        @notice Reports the balance held within the contract for a user\n        @param account Account to report balance on\n        @return Number of tokens this contract holds for the user\n    */\n    function currentBalance(address account) public view returns (uint)  {\n        return getCurrentBalance(account);\n    }\n\n//  INTERNAL\n    function _deposit(address account, uint amount) internal {\n        //Pulls token from the user and increases both internal ans system balances by the value.\n        require(digm.transferFrom(account, address(this), amount));\n        setSystemBalance(account, getSystemBalance(account).add(amount));\n        setCurrentBalance(account, getCurrentBalance(account).add(amount));\n    }\n\n    function _withdraw(address account, uint amount) internal {\n        //Sends tokens to the user reduce the values of internal and system balances by the value.\n        require(getCurrentBalance(account) >= amount);\n        require(digm.transfer(account, amount));\n        setSystemBalance(account, getSystemBalance(account).sub(amount));\n        setCurrentBalance(account, getCurrentBalance(account).sub(amount));\n    }\n\n    function getSystemBalance(address account) internal view returns (uint) {\n        //Reports the systemBalance for the user\n        return systemBalances[account];\n    }\n\n    function setSystemBalance(address account, uint amount) internal {\n        //Updates the systemBalance for the user\n        systemBalances[account] = amount;\n    }\n\n    function getCurrentBalance(address account) internal view returns (uint) {\n        //Reports the held balance for the user\n        return currentBalances[account];\n    }\n\n    function setCurrentBalance(address account, uint amount) internal {\n        //Updates the held balance for the user\n        currentBalances[account] = amount;\n    }\n}\n",
  "sourcePath": "/Users/freydal/IdeaProjects/kosu-monorepo/packages/solidity/kosu-system-contracts/contracts/treasury/Treasury.sol",
  "compiler": {
    "name": "solc",
    "version": "0.5.0+commit.1d4f565a.Emscripten.clang"
  },
  "schemaVersion": "3.0.6",
  "updatedAt": "2019-04-22T21:57:11.387Z",
  "devdoc": {
    "author": "Freydal",
    "methods": {
      "adjustBalance(address,int256)": {
        "details": "Allows contracts to change balance",
        "params": {
          "account": "User to modify tokens for",
          "amount": "Change to token balance"
        }
      },
      "award(address,uint256)": {
        "details": "Allows contracts to be rewarded with new tokens",
        "params": {
          "account": "User to award tokens to",
          "amount": "Number of tokens to award"
        }
      },
      "claimTokens(address,uint256)": {
        "details": "Allows contracts to claim tokens",
        "params": {
          "account": "User to claim tokens from",
          "amount": "Number of tokens to claim"
        }
      },
      "confiscate(address,uint256)": {
        "details": "Allows contracts to confiscate tokens the user has lost access to",
        "params": {
          "account": "User to confiscate tokens from",
          "amount": "Number of tokens to confiscate"
        }
      },
      "constructor": {
        "details": "Creates a new Treasury",
        "params": {
          "auth": "AuthorizedAddresses deployed address.",
          "digmAddress": "The deployed KosuToken contract address"
        }
      },
      "contractDeposit(address,uint256)": {
        "details": "Allows contracts to deposit",
        "params": {
          "account": "User to deposit tokens for",
          "amount": "Number of tokens to deposit"
        }
      },
      "contractWithdraw(address,uint256)": {
        "details": "Allows contracts to withdraw",
        "params": {
          "account": "User to withdraw tokens for",
          "amount": "Number of tokens to withdraw"
        }
      },
      "currentBalance(address)": {
        "details": "Reports the balance held within the contract for a user",
        "params": {
          "account": "Account to report balance on"
        },
        "return": "Number of tokens this contract holds for the user"
      },
      "deposit(uint256)": {
        "details": "Deposits tokens into the treasury",
        "params": {
          "amount": "Number of tokens to deposit"
        }
      },
      "releaseTokens(address,uint256)": {
        "details": "Allows contracts to release tokens",
        "params": {
          "account": "User to release tokens to",
          "amount": "Number of tokens to release"
        }
      },
      "systemBalance(address)": {
        "details": "Reports the balance within the contract system for a user",
        "params": {
          "account": "Account to report balance on"
        },
        "return": "The number of tokens within the total contract system"
      },
      "updateBalance(address,uint256)": {
        "details": "Allows contracts to set balance",
        "params": {
          "account": "User to modify tokens for",
          "amount": "Number of tokens to set to current balance"
        }
      },
      "withdraw(uint256)": {
        "details": "Withdraw tokens from the treasury",
        "params": {
          "amount": "Number of tokens to withdraw"
        }
      }
    },
    "title": "Treasury"
  },
  "userdoc": {
    "methods": {
      "adjustBalance(address,int256)": {
        "notice": "Allows contracts to change balance"
      },
      "award(address,uint256)": {
        "notice": "Allows contracts to be rewarded with new tokens"
      },
      "claimTokens(address,uint256)": {
        "notice": "Allows contracts to claim tokens"
      },
      "confiscate(address,uint256)": {
        "notice": "Allows contracts to confiscate tokens the user has lost access to"
      },
      "constructor": "Creates a new Treasury",
      "contractDeposit(address,uint256)": {
        "notice": "Allows contracts to deposit"
      },
      "contractWithdraw(address,uint256)": {
        "notice": "Allows contracts to withdraw"
      },
      "currentBalance(address)": {
        "notice": "Reports the balance held within the contract for a user"
      },
      "deposit(uint256)": {
        "notice": "Deposits tokens into the treasury"
      },
      "releaseTokens(address,uint256)": {
        "notice": "Allows contracts to release tokens"
      },
      "systemBalance(address)": {
        "notice": "Reports the balance within the contract system for a user"
      },
      "updateBalance(address,uint256)": {
        "notice": "Allows contracts to set balance"
      },
      "withdraw(uint256)": {
        "notice": "Withdraw tokens from the treasury"
      }
    }
  }
}