{
  "contractName": "ValidatorRegistry",
  "abi": [
    {
      "inputs": [
        {
          "name": "_treasuryAddress",
          "type": "address"
        },
        {
          "name": "_votingAddress",
          "type": "address"
        },
        {
          "name": "auth",
          "type": "address"
        },
        {
          "name": "_events",
          "type": "address"
        }
      ],
      "payable": false,
      "stateMutability": "nonpayable",
      "type": "constructor",
      "signature": "constructor"
    },
    {
      "constant": true,
      "inputs": [],
      "name": "applicationPeriod",
      "outputs": [
        {
          "name": "",
          "type": "uint256"
        }
      ],
      "payable": false,
      "stateMutability": "view",
      "type": "function",
      "signature": "0xd07e98b5"
    },
    {
      "constant": true,
      "inputs": [],
      "name": "commitPeriod",
      "outputs": [
        {
          "name": "",
          "type": "uint256"
        }
      ],
      "payable": false,
      "stateMutability": "view",
      "type": "function",
      "signature": "0xf713b052"
    },
    {
      "constant": true,
      "inputs": [],
      "name": "challengePeriod",
      "outputs": [
        {
          "name": "",
          "type": "uint256"
        }
      ],
      "payable": false,
      "stateMutability": "view",
      "type": "function",
      "signature": "0xf3f480d9"
    },
    {
      "constant": true,
      "inputs": [],
      "name": "exitPeriod",
      "outputs": [
        {
          "name": "",
          "type": "uint256"
        }
      ],
      "payable": false,
      "stateMutability": "view",
      "type": "function",
      "signature": "0x753d7445"
    },
    {
      "constant": true,
      "inputs": [],
      "name": "rewardPeriod",
      "outputs": [
        {
          "name": "",
          "type": "uint256"
        }
      ],
      "payable": false,
      "stateMutability": "view",
      "type": "function",
      "signature": "0xe88dc5b7"
    },
    {
      "constant": true,
      "inputs": [],
      "name": "minimumBalance",
      "outputs": [
        {
          "name": "",
          "type": "uint256"
        }
      ],
      "payable": false,
      "stateMutability": "view",
      "type": "function",
      "signature": "0xb9d1d49b"
    },
    {
      "constant": true,
      "inputs": [],
      "name": "stakeholderCut",
      "outputs": [
        {
          "name": "",
          "type": "uint256"
        }
      ],
      "payable": false,
      "stateMutability": "view",
      "type": "function",
      "signature": "0x8ea17b2d"
    },
    {
      "constant": true,
      "inputs": [],
      "name": "voting",
      "outputs": [
        {
          "name": "",
          "type": "address"
        }
      ],
      "payable": false,
      "stateMutability": "view",
      "type": "function",
      "signature": "0xfce1ccca"
    },
    {
      "constant": true,
      "inputs": [],
      "name": "validators",
      "outputs": [
        {
          "name": "",
          "type": "bytes32[]"
        }
      ],
      "payable": false,
      "stateMutability": "view",
      "type": "function",
      "signature": "0xca1e7819"
    },
    {
      "constant": true,
      "inputs": [],
      "name": "treasury",
      "outputs": [
        {
          "name": "",
          "type": "address"
        }
      ],
      "payable": false,
      "stateMutability": "view",
      "type": "function",
      "signature": "0x61d027b3"
    },
    {
      "constant": true,
      "inputs": [],
      "name": "token",
      "outputs": [
        {
          "name": "",
          "type": "address"
        }
      ],
      "payable": false,
      "stateMutability": "view",
      "type": "function",
      "signature": "0xfc0c546a"
    },
    {
      "constant": true,
      "inputs": [],
      "name": "maxRewardRate",
      "outputs": [
        {
          "name": "",
          "type": "uint256"
        }
      ],
      "payable": false,
      "stateMutability": "view",
      "type": "function",
      "signature": "0x0d40ffc7"
    },
    {
      "constant": true,
      "inputs": [
        {
          "name": "pubKey",
          "type": "bytes32"
        }
      ],
      "name": "getListing",
      "outputs": [
        {
          "name": "status",
          "type": "uint8"
        },
        {
          "name": "applicationBlock",
          "type": "uint256"
        },
        {
          "name": "tendermintPublicKey",
          "type": "bytes32"
        },
        {
          "name": "owner",
          "type": "address"
        }
      ],
      "payable": false,
      "stateMutability": "view",
      "type": "function",
      "signature": "0x175c0d16"
    },
    {
      "constant": false,
      "inputs": [
        {
          "name": "msgSender",
          "type": "address"
        },
        {
          "name": "tendermintPublicKey",
          "type": "bytes32"
        },
        {
          "name": "tokensToStake",
          "type": "uint256"
        },
        {
          "name": "rewardRate",
          "type": "int256"
        }
      ],
      "name": "registerListing",
      "outputs": [],
      "payable": false,
      "stateMutability": "nonpayable",
      "type": "function",
      "signature": "0x858e48fe"
    },
    {
      "constant": false,
      "inputs": [
        {
          "name": "msgSender",
          "type": "address"
        },
        {
          "name": "tendermintPublicKey",
          "type": "bytes32"
        }
      ],
      "name": "challengeListing",
      "outputs": [],
      "payable": false,
      "stateMutability": "nonpayable",
      "type": "function",
      "signature": "0xa0b3030f"
    },
    {
      "constant": false,
      "inputs": [
        {
          "name": "pubKey",
          "type": "bytes32"
        }
      ],
      "name": "resolveChallenge",
      "outputs": [],
      "payable": false,
      "stateMutability": "nonpayable",
      "type": "function",
      "signature": "0xd32c943a"
    },
    {
      "constant": false,
      "inputs": [
        {
          "name": "msgSender",
          "type": "address"
        },
        {
          "name": "challengeId",
          "type": "uint256"
        }
      ],
      "name": "claimWinnings",
      "outputs": [],
      "payable": false,
      "stateMutability": "nonpayable",
      "type": "function",
      "signature": "0x183085c0"
    },
    {
      "constant": false,
      "inputs": [
        {
          "name": "pubKey",
          "type": "bytes32"
        }
      ],
      "name": "claimRewards",
      "outputs": [],
      "payable": false,
      "stateMutability": "nonpayable",
      "type": "function",
      "signature": "0x7790ddc6"
    },
    {
      "constant": false,
      "inputs": [
        {
          "name": "msgSender",
          "type": "address"
        },
        {
          "name": "tendermintPublicKey",
          "type": "bytes32"
        }
      ],
      "name": "confirmListing",
      "outputs": [],
      "payable": false,
      "stateMutability": "nonpayable",
      "type": "function",
      "signature": "0x77a2b56f"
    },
    {
      "constant": false,
      "inputs": [
        {
          "name": "msgSender",
          "type": "address"
        },
        {
          "name": "tendermintPublicKey",
          "type": "bytes32"
        }
      ],
      "name": "initExit",
      "outputs": [],
      "payable": false,
      "stateMutability": "nonpayable",
      "type": "function",
      "signature": "0x878432a6"
    },
    {
      "constant": false,
      "inputs": [
        {
          "name": "msgSender",
          "type": "address"
        },
        {
          "name": "tendermintPublicKey",
          "type": "bytes32"
        }
      ],
      "name": "finalizeExit",
      "outputs": [],
      "payable": false,
      "stateMutability": "nonpayable",
      "type": "function",
      "signature": "0xff8f3e62"
    }
  ],
  "bytecode": "0x608060405260086001556004600255600860035560026004556002600555670de0b6b3a7640000600655601e6007556001600d556f03025f39ef241c56cd2e7c400000000060105534801561005357600080fd5b5060405160808062002b768339810180604052608081101561007457600080fd5b50805160208083015160408085015160609095015160008054600160a060020a03808916600160a060020a0319928316179092556008805483891690831617908190556009805484881693169290921790915583517ffe2ada6b0000000000000000000000000000000000000000000000000000000081529351969794969495929491169263fe2ada6b926004808301939192829003018186803b15801561011b57600080fd5b505afa15801561012f573d6000803e3d6000fd5b505050506040513d602081101561014557600080fd5b5051600a8054600160a060020a03928316600160a060020a031991821617909155600f80549390921692169190911790555050506129ed80620001896000396000f3fe60806040526004361061011c5763ffffffff7c01000000000000000000000000000000000000000000000000000000006000350416630d40ffc78114610121578063175c0d1614610148578063183085c0146101b357806361d027b3146101ee578063753d74451461021f5780637790ddc61461023457806377a2b56f1461025e578063858e48fe14610297578063878432a6146102dc5780638ea17b2d14610315578063a0b3030f1461032a578063b9d1d49b14610363578063ca1e781914610378578063d07e98b5146103dd578063d32c943a146103f2578063e88dc5b71461041c578063f3f480d914610431578063f713b05214610446578063fc0c546a1461045b578063fce1ccca14610470578063ff8f3e6214610485575b600080fd5b34801561012d57600080fd5b506101366104be565b60408051918252519081900360200190f35b34801561015457600080fd5b506101726004803603602081101561016b57600080fd5b50356104d1565b6040518085600481111561018257fe5b60ff168152602081019490945250604080840192909252600160a060020a0316606083015251908190036080019150f35b3480156101bf57600080fd5b506101ec600480360360408110156101d657600080fd5b50600160a060020a0381351690602001356105c0565b005b3480156101fa57600080fd5b5061020361092d565b60408051600160a060020a039092168252519081900360200190f35b34801561022b57600080fd5b5061013661093c565b34801561024057600080fd5b506101ec6004803603602081101561025757600080fd5b5035610942565b34801561026a57600080fd5b506101ec6004803603604081101561028157600080fd5b50600160a060020a03813516906020013561095d565b3480156102a357600080fd5b506101ec600480360360808110156102ba57600080fd5b50600160a060020a038135169060208101359060408101359060600135610aec565b3480156102e857600080fd5b506101ec600480360360408110156102ff57600080fd5b50600160a060020a038135169060200135610cf2565b34801561032157600080fd5b50610136610f1b565b34801561033657600080fd5b506101ec6004803603604081101561034d57600080fd5b50600160a060020a038135169060200135610f21565b34801561036f57600080fd5b506101366111fe565b34801561038457600080fd5b5061038d611204565b60408051602080825283518183015283519192839290830191858101910280838360005b838110156103c95781810151838201526020016103b1565b505050509050019250505060405180910390f35b3480156103e957600080fd5b5061013661125c565b3480156103fe57600080fd5b506101ec6004803603602081101561041557600080fd5b5035611262565b34801561042857600080fd5b5061013661198c565b34801561043d57600080fd5b50610136611992565b34801561045257600080fd5b50610136611998565b34801561046757600080fd5b5061020361199e565b34801561047c57600080fd5b506102036119ad565b34801561049157600080fd5b506101ec600480360360408110156104a857600080fd5b50600160a060020a0381351690602001356119bc565b60006104cb601054611ba4565b90505b90565b6000806000806104df612924565b6000868152600b602052604090819020815161014081019092528054829060ff16600481111561050b57fe5b600481111561051657fe5b8152602001600182015481526020016002820154815260200160038201548152602001600482015481526020016005820154815260200160068201548152602001600782015481526020016008820160009054906101000a9004600160a060020a0316600160a060020a0316600160a060020a031681526020016009820154815250509050806000015181604001518260e001518361010001519450945094509450509193509193565b6000546040805160e260020a6333b4fee70281523360048201529051600160a060020a039092169163ced3fb9c91602480820192602092909190829003018186803b15801561060e57600080fd5b505afa158015610622573d6000803e3d6000fd5b505050506040513d602081101561063857600080fd5b5051151561064557600080fd5b6000818152600c602052604090206005810154431161066357600080fd5b600681015460ff16151561067c57805461067c90611262565b600681015460ff16151561068f57600080fd5b600954600480830154604080517ff8a2e51000000000000000000000000000000000000000000000000000000000815292830191909152600160a060020a0386811660248401529051600093919091169163f8a2e510916044808301926020929190829003018186803b15801561070557600080fd5b505afa158015610719573d6000803e3d6000fd5b505050506040513d602081101561072f57600080fd5b5051600954600480850154604080517f1b89ef0f0000000000000000000000000000000000000000000000000000000081529283019190915251929350600092600160a060020a0390921691631b89ef0f91602480820192602092909190829003018186803b1580156107a157600080fd5b505afa1580156107b5573d6000803e3d6000fd5b505050506040513d60208110156107cb57600080fd5b505160028401549091506000906107fa9083906107ee908663ffffffff611bdf16565b9063ffffffff611c1316565b6003850154909150610812908263ffffffff611c3716565b6003850155600a546008546040805160e060020a63095ea7b3028152600160a060020a039283166004820152602481018590529051919092169163095ea7b39160448083019260209291908290030181600087803b15801561087357600080fd5b505af1158015610887573d6000803e3d6000fd5b505050506040513d602081101561089d57600080fd5b5050600854604080517f5d8a776e000000000000000000000000000000000000000000000000000000008152600160a060020a0389811660048301526024820185905291519190921691635d8a776e91604480830192600092919082900301818387803b15801561090d57600080fd5b505af1158015610921573d6000803e3d6000fd5b50505050505050505050565b600854600160a060020a031690565b60045490565b6000818152600b6020526040902061095981611c4c565b5050565b6000546040805160e260020a6333b4fee70281523360048201529051600160a060020a039092169163ced3fb9c91602480820192602092909190829003018186803b1580156109ab57600080fd5b505afa1580156109bf573d6000803e3d6000fd5b505050506040513d60208110156109d557600080fd5b505115156109e257600080fd5b6000818152600b602052604090206008810154600160a060020a03848116911614610a0c57600080fd5b6001815460ff166004811115610a1e57fe5b148015610a43575043610a4060015483600201546120be90919063ffffffff16565b11155b1515610a4e57600080fd5b805460ff19166002178155436003820155600581015460001315610a7b5760055443036006820155610abb565b600081600501541315610ab4576005810154610aaf610aa0828063ffffffff611bdf16565b6010549063ffffffff6120be16565b601055505b4360068201555b610ac481611c4c565b600781015460088201546001830154610ae79291600160a060020a0316906120d0565b505050565b6000546040805160e260020a6333b4fee70281523360048201529051600160a060020a039092169163ced3fb9c91602480820192602092909190829003018186803b158015610b3a57600080fd5b505afa158015610b4e573d6000803e3d6000fd5b505050506040513d6020811015610b6457600080fd5b50511515610b7157600080fd5b600654821015610b8057600080fd5b600854604080517ffe417fa5000000000000000000000000000000000000000000000000000000008152600160a060020a038781166004830152602482018690529151919092169163fe417fa591604480830192600092919082900301818387803b158015610bee57600080fd5b505af1158015610c02573d6000803e3d6000fd5b5050506000848152600b602052604081209150815460ff166004811115610c2557fe5b14610c2f57600080fd5b6000821315610c4c57610c406104be565b821115610c4c57600080fd5b8054600160ff199091168117825580820184905543600283019081556007830186815560088401805473ffffffffffffffffffffffffffffffffffffffff1916600160a060020a038a811691909117825560058601879055600e805495860181556000527fbb7b4a454dc3493923482f07822329ed19e8244eff582cc204f8554c3620c3fd909401889055915490549154610ceb93919291168561222e565b5050505050565b6000546040805160e260020a6333b4fee70281523360048201529051600160a060020a039092169163ced3fb9c91602480820192602092909190829003018186803b158015610d4057600080fd5b505afa158015610d54573d6000803e3d6000fd5b505050506040513d6020811015610d6a57600080fd5b50511515610d7757600080fd5b6000818152600b602052604090206008810154600160a060020a03848116911614610da157600080fd5b6001815460ff166004811115610db357fe5b1415610ecb57600a5460085460018301546040805160e060020a63095ea7b3028152600160a060020a039384166004820152602481019290925251919092169163095ea7b39160448083019260209291908290030181600087803b158015610e1a57600080fd5b505af1158015610e2e573d6000803e3d6000fd5b505050506040513d6020811015610e4457600080fd5b505060085460018201546040805160e060020a63f40d71f1028152600160a060020a03878116600483015260248201939093529051919092169163f40d71f191604480830192600092919082900301818387803b158015610ea457600080fd5b505af1158015610eb8573d6000803e3d6000fd5b50505050610ec5816123a9565b50610959565b6002815460ff166004811115610edd57fe5b14610ee757600080fd5b805460ff191660049081178255805443019082015560078101546008820154610ae79190600160a060020a031660006120d0565b60075490565b6000546040805160e260020a6333b4fee70281523360048201529051600160a060020a039092169163ced3fb9c91602480820192602092909190829003018186803b158015610f6f57600080fd5b505afa158015610f83573d6000803e3d6000fd5b505050506040513d6020811015610f9957600080fd5b50511515610fa657600080fd5b6000818152600b602052604090206001815460ff166004811115610fc657fe5b1480610fe157506002815460ff166004811115610fdf57fe5b145b80610ffb57506004815460ff166004811115610ff957fe5b145b151561100657600080fd5b61100f81611c4c565b6000815460ff16600481111561102157fe5b141561102d5750610959565b805460ff19166003178155600d8054600983018190556000818152600c602052604080822060019384019094556008549285015481517ffe417fa5000000000000000000000000000000000000000000000000000000008152600160a060020a0389811660048301526024820192909252915193169263fe417fa59260448084019391929182900301818387803b1580156110c757600080fd5b505af11580156110db573d6000803e3d6000fd5b50505050600182810154600383810191909155908201805473ffffffffffffffffffffffffffffffffffffffff1916600160a060020a03878116919091179091556007840154835581544390810160058501556009546002549354604080517fbad62d20000000000000000000000000000000000000000000000000000000008152958401600487015292016024850152905191169163bad62d209160448083019260209291908290030181600087803b15801561119857600080fd5b505af11580156111ac573d6000803e3d6000fd5b505050506040513d60208110156111c257600080fd5b50516004820181905560078301546008840154600184015460098601546111f894600160a060020a039384169390921691612462565b50505050565b60065490565b6060600e80548060200260200160405190810160405280929190818152602001828054801561125257602002820191906000526020600020905b81548152602001906001019080831161123e575b5050505050905090565b60015490565b6000818152600b6020908152604080832060098101548452600c9092529091206003825460ff16600481111561129457fe5b1461129e57600080fd5b600581015443116112ae57600080fd5b600681015460ff16156112c057600080fd5b60018201546003820154146112d457600080fd5b600954600480830154604080517f0dca7ed80000000000000000000000000000000000000000000000000000000081529283019190915251600092600160a060020a031691630dca7ed8916024808301926020929190829003018186803b15801561133e57600080fd5b505afa158015611352573d6000803e3d6000fd5b505050506040513d602081101561136857600080fd5b5051600754600185015491925060009161138e916064916107ee9163ffffffff611bdf16565b60018501549091506113a6908263ffffffff611c3716565b600284015560018214156116505760068301805460ff1961ff001990911661010017166001908117909155600880549086015491860154604080517f47298f82000000000000000000000000000000000000000000000000000000008152600160a060020a03948516600482015260248101929092525192909116916347298f829160448082019260009290919082900301818387803b15801561144957600080fd5b505af115801561145d573d6000803e3d6000fd5b505050600384015460009150611479908363ffffffff6120be16565b600a546008546040805160e060020a63095ea7b3028152600160a060020a03928316600482015260248101859052905193945091169163095ea7b3916044808201926020929091908290030181600087803b1580156114d757600080fd5b505af11580156114eb573d6000803e3d6000fd5b505050506040513d602081101561150157600080fd5b5050600854600185015460038601546040805160e060020a63f40d71f1028152600160a060020a039384166004820152602481019290925251919092169163f40d71f191604480830192600092919082900301818387803b15801561156557600080fd5b505af1158015611579573d6000803e3d6000fd5b50506008546001870154604080517f5d8a776e000000000000000000000000000000000000000000000000000000008152600160a060020a039283166004820152602481018890529051919092169350635d8a776e9250604480830192600092919082900301818387803b1580156115f057600080fd5b505af1158015611604573d6000803e3d6000fd5b505050600385015461161d91508363ffffffff611c3716565b6003850155600785015460088601546116419190600160a060020a031660006120d0565b61164a856123a9565b50610ceb565b60068301805461ffff191660019081179091556008548185015491860154604080517f47298f82000000000000000000000000000000000000000000000000000000008152600160a060020a03948516600482015260248101929092525192909116916347298f829160448082019260009290919082900301818387803b1580156116da57600080fd5b505af11580156116ee573d6000803e3d6000fd5b505050600384015461170791508263ffffffff611c3716565b6003840155600a546008546040805160e060020a63095ea7b3028152600160a060020a039283166004820152602481018590529051919092169163095ea7b39160448083019260209291908290030181600087803b15801561176857600080fd5b505af115801561177c573d6000803e3d6000fd5b505050506040513d602081101561179257600080fd5b50506008805490850154604080517f5d8a776e000000000000000000000000000000000000000000000000000000008152600160a060020a0392831660048201526024810185905290519190921691635d8a776e91604480830192600092919082900301818387803b15801561180757600080fd5b505af115801561181b573d6000803e3d6000fd5b5050505060008460040154111561194157600a5460085460018601546040805160e060020a63095ea7b3028152600160a060020a039384166004820152602481019290925251919092169163095ea7b39160448083019260209291908290030181600087803b15801561188d57600080fd5b505af11580156118a1573d6000803e3d6000fd5b505050506040513d60208110156118b757600080fd5b5050600880549085015460018601546040805160e060020a63f40d71f1028152600160a060020a039384166004820152602481019290925251919092169163f40d71f191604480830192600092919082900301818387803b15801561191b57600080fd5b505af115801561192f573d6000803e3d6000fd5b5050505061193c846123a9565b611978565b60008460030154111561196557835460ff1916600217845560006009850155611978565b835460ff19166001178455600060098501555b6002830154600384015414610ceb57600080fd5b60055490565b60035490565b60025490565b600a54600160a060020a031690565b600954600160a060020a031690565b6000546040805160e260020a6333b4fee70281523360048201529051600160a060020a039092169163ced3fb9c91602480820192602092909190829003018186803b158015611a0a57600080fd5b505afa158015611a1e573d6000803e3d6000fd5b505050506040513d6020811015611a3457600080fd5b50511515611a4157600080fd5b6000818152600b602052604090206008810154600160a060020a03848116911614611a6b57600080fd5b6004815460ff166004811115611a7d57fe5b14611a8757600080fd5b6004810154431015611a9857600080fd5b600a5460085460018301546040805160e060020a63095ea7b3028152600160a060020a039384166004820152602481019290925251919092169163095ea7b39160448083019260209291908290030181600087803b158015611af957600080fd5b505af1158015611b0d573d6000803e3d6000fd5b505050506040513d6020811015611b2357600080fd5b505060085460018201546040805160e060020a63f40d71f1028152600160a060020a03878116600483015260248201939093529051919092169163f40d71f191604480830192600092919082900301818387803b158015611b8357600080fd5b505af1158015611b97573d6000803e3d6000fd5b50505050610ae7816123a9565b80600260018201045b81811015611bd9578091506002818285811515611bc657fe5b0401811515611bd157fe5b049050611bad565b50919050565b6000821515611bf057506000611c0d565b828202828482811515611bff57fe5b0414611c0a57600080fd5b90505b92915050565b6000808211611c2157600080fd5b60008284811515611c2e57fe5b04949350505050565b600082821115611c4657600080fd5b50900390565b611c55816125e2565b156120bb576000611c796005546107ee846006015443611c3790919063ffffffff16565b9050600082600501541315611d4157600a5460088301546005840154600160a060020a039283169263449a52f8921690611cb9908563ffffffff611bdf16565b6040518363ffffffff167c01000000000000000000000000000000000000000000000000000000000281526004018083600160a060020a0316600160a060020a0316815260200182815260200192505050600060405180830381600087803b158015611d2457600080fd5b505af1158015611d38573d6000803e3d6000fd5b5050505061208c565b6005820154600090611d5b9082038363ffffffff611bdf16565b6008805490850154604080517f9e546c38000000000000000000000000000000000000000000000000000000008152600160a060020a03928316600482015290519394506000939190921691639e546c38916024808301926020929190829003018186803b158015611dcc57600080fd5b505afa158015611de0573d6000803e3d6000fd5b505050506040513d6020811015611df657600080fd5b5051905081811015611ffd576000611e14838363ffffffff611c3716565b60018601549091508110611e3357506001840180546000909155611e4e565b6001850154611e48908263ffffffff611c3716565b60018601555b600a546008546040805160e060020a63095ea7b3028152600160a060020a039283166004820152602481018590529051919092169163095ea7b39160448083019260209291908290030181600087803b158015611eaa57600080fd5b505af1158015611ebe573d6000803e3d6000fd5b505050506040513d6020811015611ed457600080fd5b505060088054908601546040805160e060020a63f40d71f1028152600160a060020a039283166004820152602481018590529051919092169163f40d71f191604480830192600092919082900301818387803b158015611f3357600080fd5b505af1158015611f47573d6000803e3d6000fd5b505050506000611f6082846120be90919063ffffffff16565b6008805490880154604080517f79cc6790000000000000000000000000000000000000000000000000000000008152600160a060020a0392831660048201526024810185905290519394509116916379cc67909160448082019260009290919082900301818387803b158015611fd557600080fd5b505af1158015611fe9573d6000803e3d6000fd5b50505050611ff68661261f565b5050612089565b6008805490850154604080517f79cc6790000000000000000000000000000000000000000000000000000000008152600160a060020a03928316600482015260248101869052905191909216916379cc679091604480830192600092919082900301818387803b15801561207057600080fd5b505af1158015612084573d6000803e3d6000fd5b505050505b50505b6005546120b4906120a3908363ffffffff611bdf16565b60068401549063ffffffff6120be16565b6006830155505b50565b600082820183811015611c0a57600080fd5b604080516003808252608082019092526060916020820183803883390190505090508381600081518110151561210257fe5b602090810290910101528051600160a060020a038416908290600190811061212657fe5b60209081029091010152805182908290600290811061214157fe5b6020908102909101810191909152600f546040805160e060020a632790240102815260048101918252601760448201527f56616c696461746f7252656769737472795570646174650000000000000000006064820152608060248201908152855160848301528551600160a060020a039094169463279024019487949384939260a490910191868201910280838360005b838110156121ea5781810151838201526020016121d2565b505050509050019350505050600060405180830381600087803b15801561221057600080fd5b505af1158015612224573d6000803e3d6000fd5b5050505050505050565b60408051600480825260a08201909252606091602082016080803883390190505090508381600081518110151561226157fe5b60209081029091010152805185908290600190811061227c57fe5b602090810290910101528051600160a060020a03841690829060029081106122a057fe5b6020908102909101015280518290829060039081106122bb57fe5b6020908102909101810191909152600f546040805160e060020a632790240102815260048101918252601360448201527f56616c696461746f7252656769737465726564000000000000000000000000006064820152608060248201908152855160848301528551600160a060020a039094169463279024019487949384939260a490910191868201910280838360005b8381101561236457818101518382015260200161234c565b505050509050019350505050600060405180830381600087803b15801561238a57600080fd5b505af115801561239e573d6000803e3d6000fd5b505050505050505050565b6000816005015413156123e25760058101546123dd6123ce828063ffffffff611bdf16565b6010549063ffffffff611c3716565b601055505b6123ef8160070154612757565b6007908101546000908152600b60205260408120805460ff1916815560018101829055600281018290556003810182905560048101829055600581018290556006810182905591820181905560088201805473ffffffffffffffffffffffffffffffffffffffff19169055600990910155565b60408051600580825260c082019092526060916020820160a0803883390190505090508581600081518110151561249557fe5b602090810290910101528051600160a060020a03861690829060019081106124b957fe5b602090810290910101528051600160a060020a03851690829060029081106124dd57fe5b6020908102909101015280518390829060039081106124f857fe5b60209081029091010152805182908290600490811061251357fe5b6020908102909101810191909152600f546040805160e060020a632790240102815260048101918252601360448201527f56616c696461746f724368616c6c656e676564000000000000000000000000006064820152608060248201908152855160848301528551600160a060020a039094169463279024019487949384939260a490910191868201910280838360005b838110156125bc5781810151838201526020016125a4565b505050509050019350505050600060405180830381600087803b15801561090d57600080fd5b60006002825460ff1660048111156125f657fe5b1480156126065750600582015415155b8015611c0d575043600554836006015401111592915050565b612628816127d8565b600781015460088201546126479190600160a060020a031660006120d0565b600a5460085460018301546040805160e060020a63095ea7b3028152600160a060020a039384166004820152602481019290925251919092169163095ea7b39160448083019260209291908290030181600087803b1580156126a857600080fd5b505af11580156126bc573d6000803e3d6000fd5b505050506040513d60208110156126d257600080fd5b5050600880549082015460018301546040805160e060020a63f40d71f1028152600160a060020a039384166004820152602481019290925251919092169163f40d71f191604480830192600092919082900301818387803b15801561273657600080fd5b505af115801561274a573d6000803e3d6000fd5b505050506120bb816123a9565b60005b600e548110156109595781600e8281548110151561277457fe5b906000526020600020015414156127d057600e8054600019810190811061279757fe5b9060005260206000200154600e828154811015156127b157fe5b600091825260209091200155600e805490610ec5906000198301612984565b60010161275a565b60408051600480825260a0820190925260609160208201608080388339019050509050816007015481600081518110151561280f57fe5b6020908102909101015260088201548151600160a060020a03909116908290600290811061283957fe5b6020908102909101810191909152600f546040805160e060020a632790240102815260048101918252601a60448201527f56616c696461746f72546f7563686564416e6452656d6f7665640000000000006064820152608060248201908152855160848301528551600160a060020a039094169463279024019487949384939260a490910191868201910280838360005b838110156128e25781810151838201526020016128ca565b505050509050019350505050600060405180830381600087803b15801561290857600080fd5b505af115801561291c573d6000803e3d6000fd5b505050505050565b6040805161014081019091528060008152602001600081526020016000815260200160008152602001600081526020016000815260200160008152602001600080191681526020016000600160a060020a03168152602001600081525090565b815481835581811115610ae757600083815260209020610ae79181019083016104ce91905b808211156129bd57600081556001016129a9565b509056fea165627a7a72305820c4b1986301f953beb3fffada6010436bb428b9f7cd46f61b58226a252d44dfab0029",
  "source": "pragma solidity ^0.5.0;\n\nimport \"openzeppelin-solidity/contracts/math/SafeMath.sol\";\nimport \"../event/EventEmitter.sol\";\nimport \"../treasury/Treasury.sol\";\nimport \"./IValidatorRegistry.sol\";\nimport \"../voting/Voting.sol\";\n\n/** @title ValidatorRegistry\n    @author Freydal\n*/\ncontract ValidatorRegistry is IValidatorRegistry, Authorizable {\n    using SafeMath for uint;\n\n    uint private _applicationPeriod = 8;\n    uint private _commitPeriod = 4;\n    uint private _challengePeriod = 8;\n    uint private _exitPeriod = 2;\n    uint private _rewardPeriod = 2;\n    uint private _minimumBalance = 1 ether;\n    uint private _stakeholderCut = 30; //Will be used as a percent so must be sub 100\n    Treasury private _treasury;\n    Voting private _voting;\n    KosuToken private _token;\n    mapping(bytes32 => Listing) private _listings;\n    mapping(uint => Challenge) private _challenges;\n    uint private nextChallenge = 1;\n    bytes32[] private _listingKeys;\n    EventEmitter private e;\n    uint _maxGenerationSum = 2 ether * 2 ether;\n\n    /** @dev Create a new ValidatorRegistry implementation\n        @notice Create a new ValidatorRegistry implementation\n        @param _treasuryAddress Deployed Treasury address\n        @param _votingAddress Deployed Voting address\n        @param auth AuthorizedAddresses deployed address\n        @param _events Deployed EventEmitter address\n    */\n    constructor(address _treasuryAddress, address _votingAddress, address auth, address _events) Authorizable(auth) public {\n        _treasury = Treasury(_treasuryAddress);\n        _voting = Voting(_votingAddress);\n        _token = _treasury.digm();\n        e = EventEmitter(_events);\n    }\n\n    /** @dev Expose the configured applicationPeriod\n        @notice Expose the configured applicationPeriod\n        @return Application period length in blocks\n    */\n    function applicationPeriod() public view returns (uint) {\n        return _applicationPeriod;\n    }\n\n    /** @dev Expose the configured commitPeriod\n        @notice Expose the configured commitPeriod\n        @return Commit period length in blocks\n    */\n    function commitPeriod() public view returns (uint) {\n        return _commitPeriod;\n    }\n\n    /** @dev Expose the configured challengePeriod\n        @notice Expose the configured challengePeriod\n        @return Challenge period length in blocks\n    */\n    function challengePeriod() public view returns (uint) {\n        return _challengePeriod;\n    }\n\n    /** @dev Expose the configured exitPeriod\n        @notice Expose the configured exitPeriod\n        @return Exit period length in blocks\n    */\n    function exitPeriod() public view returns (uint) {\n        return _exitPeriod;\n    }\n\n    /** @dev Expose the configured rewardPeriod\n        @notice Expose the configured rewardPeriod\n        @return Reward period length in blocks\n    */\n    function rewardPeriod() public view returns (uint) {\n        return _rewardPeriod;\n    }\n\n    /** @dev Expose the configured minimumBalance\n        @notice Expose the configured minimumBalance\n        @return Minimum token balance to list and challenge\n    */\n    function minimumBalance() public view returns (uint) {\n        return _minimumBalance;\n    }\n\n    /** @dev Expose the configured stakeholderCut\n        @notice Expose the configured stakeholderCut\n        @return Number of tokens the stakeholder gets after a challenge\n    */\n    function stakeholderCut() public view returns (uint) {\n        return _stakeholderCut;\n    }\n\n    /** @dev Expose the configured Voting contract address\n        @notice Expose the configured Voting contract address\n        @return Configured Voting contract address\n    */\n    function voting() public view returns (address) {\n        return address(_voting);\n    }\n\n    /** @dev Expose the list of active validators\n        @notice Expose the list of active validators\n        @return An array of hex encoded tendermint keys\n    */\n    function validators() public view returns (bytes32[] memory) {\n        return _listingKeys;\n    }\n\n    /** @dev Expose the configured Treasury address\n        @notice Expose the configured Treasury address\n        @return Configured Treasury contract address\n    */\n    function treasury() public view returns (address) {\n        return address(_treasury);\n    }\n\n    /** @dev Expose the configured KosuToken\n        @notice Expose the configured KosuToken\n        @return Configured KosuToken contract address\n    */\n    function token() public view returns (address) {\n        return address(_token);\n    }\n\n    /** @dev Calculate the maximum KosuToken a validator can generate\n        @notice Calculate the maximum KosuToken a validator can generate\n        @return Maximum KosuToken a validator can generate\n    */\n    function maxRewardRate() public view returns (uint) {\n        return (sqrt(_maxGenerationSum));\n    }\n\n    /** @dev Expose listing data\n        @notice Expose listing data\n        @param pubKey Hex encoded tendermint public key\n    */\n    function getListing(bytes32 pubKey) public view returns (Status status, uint applicationBlock, bytes32 tendermintPublicKey, address owner) {\n        //TODO: update output when structure more final\n        Listing memory listing = _listings[pubKey];\n        return (listing.status, listing.applicationBlock, listing.tendermintPublicKey, listing.owner);\n    }\n\n    /** @dev Register a listing\n        @notice Register a listing\n        @param msgSender msg.sender from the proxy call\n        @param tendermintPublicKey Hex encoded tendermint public key\n        @param tokensToStake The number of tokes at stake if the order is challenged\n        @param rewardRate The rate tokens are minted or destroyed over the active listings reward periods\n    */\n    function registerListing(address msgSender, bytes32 tendermintPublicKey, uint tokensToStake, int rewardRate) external isAuthorized {\n        //tokensToStake must be greater than or equal to _minimumBalance\n        require(tokensToStake >= _minimumBalance);\n\n        //Claim tokens from the treasury\n        _treasury.claimTokens(msgSender, tokensToStake);\n\n        //Load listing\n        Listing storage listing = _listings[tendermintPublicKey];\n\n        //Must not overwrite an existing listing\n        require(listing.status == Status.NULL);\n        if(rewardRate > 0) {\n            require(uint(rewardRate) <= maxRewardRate());\n        }\n\n        //Set listing values\n        listing.status = Status.PENDING;\n        listing.stakedBalance = tokensToStake;\n        listing.applicationBlock = block.number;\n        listing.tendermintPublicKey = tendermintPublicKey;\n        listing.owner = msgSender;\n        listing.rewardRate = rewardRate;\n\n        //Add new listing public key to key list\n        _listingKeys.push(tendermintPublicKey);\n\n        //Emit event\n        emitValidatorRegistered(listing.applicationBlock, listing.tendermintPublicKey, listing.owner, rewardRate);\n    }\n\n    /** @dev Challenge a registered listing\n        @notice Challenge a registered listing\n        @param msgSender msg.sender from the proxy call\n        @param tendermintPublicKey Hex encoded tendermint public key\n    */\n    function challengeListing(address msgSender, bytes32 tendermintPublicKey) public isAuthorized {\n        //Load listing\n        Listing storage listing = _listings[tendermintPublicKey];\n\n        //Challenge pending and accepted listings.  -- More valid status may be added.\n        require(listing.status == Status.PENDING || listing.status == Status.ACCEPTED || listing.status == Status.EXITING);\n\n        //TODO When min balance becomes variable touch and remove if below balance;\n\n        //Ensure earns and burns are up to date  return if a touch and remove was executed\n        processRewards(listing);\n        if(listing.status == Status.NULL) return;\n\n        //Update the listing\n        listing.status = Status.CHALLENGED;\n        listing.currentChallenge = nextChallenge;\n\n        //Create challenge\n        Challenge storage challenge = _challenges[nextChallenge];\n        nextChallenge++;\n\n        //Pull tokens out of the treasury\n        _treasury.claimTokens(msgSender, listing.stakedBalance);\n\n        //Initialize challenge.\n        challenge.balance = listing.stakedBalance;\n        challenge.challenger = msgSender;\n        challenge.listingKey = listing.tendermintPublicKey;\n        challenge.challengeEnd = block.number + _challengePeriod;\n        challenge.pollId = _voting.createPoll(block.number + _commitPeriod, block.number + _challengePeriod);\n\n        //Emit challenged event\n        emitValidatorChallenged(listing.tendermintPublicKey, listing.owner, challenge.challenger, listing.currentChallenge, challenge.pollId);\n    }\n\n    /** @dev Resolve a challenge\n        @notice Resolve a challenge\n        @param pubKey Hex encoded tendermint public key\n    */\n    function resolveChallenge(bytes32 pubKey) public {\n        //Load listing\n        Listing storage listing = _listings[pubKey];\n        Challenge storage challenge = _challenges[listing.currentChallenge];\n\n        //Must be currently challenged and after the end block but not finalized\n        require(listing.status == Status.CHALLENGED);\n        require(block.number > challenge.challengeEnd);\n        require(!challenge.finalized);\n        require(challenge.balance == listing.stakedBalance);\n\n        uint winningOption = _voting.winningOption(challenge.pollId);\n\n        //calculate the holders cut\n        uint holderCut = listing.stakedBalance.mul(_stakeholderCut).div(100);\n        challenge.voterTotal = listing.stakedBalance.sub(holderCut);\n\n        if(winningOption == 1) {\n            challenge.passed = true;\n            challenge.finalized = true;\n\n            //Challenger won listing owner looses the tokens\n            _treasury.confiscate(listing.owner, listing.stakedBalance);\n\n            //Approve and release tokens to treasury for successful challenger\n            //Challenger receives his tokens back and cut of the listing balance.  Tokens available for distribution will be tracked in the challenge.balance\n            uint challengerTotalWinnings = challenge.balance.add(holderCut);\n            _token.approve(address(_treasury), challengerTotalWinnings);\n\n            // Release challenge stake, award new tokens then remove the award from the remaining reward.\n            _treasury.releaseTokens(challenge.challenger, challenge.balance);\n            _treasury.award(challenge.challenger, holderCut);\n            challenge.balance = challenge.balance.sub(holderCut);\n\n            //Emit event removing power\n            emitValidatorRegistryUpdate(listing.tendermintPublicKey, listing.owner, 0);\n\n            removeListing(listing);\n        } else {\n            challenge.passed = false;\n            challenge.finalized = true;\n\n            //Challenger lost and has lost the tokens.\n            _treasury.confiscate(challenge.challenger, listing.stakedBalance);\n\n            //Approve and release tokens to treasury for the listing holder Remaning tokens\n            challenge.balance = challenge.balance.sub(holderCut);\n            _token.approve(address(_treasury), holderCut);\n            _treasury.award(listing.owner, holderCut);\n\n            //Handle status transitions\n            if(listing.exitBlock > 0) { //Exiting challenge exit is completed\n                //listing was exiting and got challenged.  The listing will be removed by surviving the challenge.\n\n                //Approve and release tokens to treasury\n                _token.approve(address(_treasury), listing.stakedBalance);\n                _treasury.releaseTokens(listing.owner, listing.stakedBalance);\n\n                //Clear listing data and remove from tracking array\n                removeListing(listing);\n            } else if(listing.confirmationBlock > 0) { //Confirmed challenge is returned to accepted\n                listing.status = Status.ACCEPTED;\n                listing.currentChallenge = 0;\n            } else { //Pending challege returned to pending\n                listing.status = Status.PENDING;\n                listing.currentChallenge = 0;\n            }\n\n            //ensure the ending state is correct\n            require(challenge.balance == challenge.voterTotal);\n        }\n    }\n\n    /** @dev Claims winnings from a challenge\n        @notice Claims winnings from a challenge\n        @param challengeId Challenge id to claim rewards from.\n    */\n    function claimWinnings(address msgSender, uint challengeId) public isAuthorized {\n        Challenge storage challenge = _challenges[challengeId];\n\n        //Must be after challenge period\n        require(block.number > challenge.challengeEnd);\n\n        //Finalize the challenge\n        if(!challenge.finalized) {\n            resolveChallenge(challenge.listingKey);\n        }\n\n        //Ensure finalize has been completed\n        require(challenge.finalized);\n\n        //Get vote info\n        uint winningTokens = _voting.userWinningTokens(challenge.pollId, msgSender);\n        uint totalWinningTokens = _voting.totalWinningTokens(challenge.pollId);\n\n        //Approve and release tokens to treasury for the listing holder Remaning tokens\n        uint voterCut = challenge.voterTotal.mul(winningTokens).div(totalWinningTokens);\n        challenge.balance = challenge.balance.sub(voterCut);\n        _token.approve(address(_treasury), voterCut);\n        _treasury.award(msgSender, voterCut);\n    }\n\n    /** @dev Claims rewards for a listing\n        @notice Claims rewards for a listing\n        @param pubKey Public key for the listing to have rewards claimed\n    */\n    function claimRewards(bytes32 pubKey) public {\n        //Load listing\n        Listing storage listing = _listings[pubKey];\n\n        //Call process rewards with loaded listing\n        processRewards(listing);\n    }\n\n    /** @dev Confirm a listing registration\n        @notice Confirm a listing registration\n        @param msgSender msg.sender from the proxy call\n        @param tendermintPublicKey Hex encoded tendermint public key\n    */\n    function confirmListing(address msgSender, bytes32 tendermintPublicKey) public isAuthorized {\n        //Load listing\n        Listing storage listing = _listings[tendermintPublicKey];\n\n        //Must be called by owner after application period\n        require(listing.owner == msgSender);\n        require(listing.status == Status.PENDING && listing.applicationBlock.add(_applicationPeriod) <= block.number);\n\n        //Listing is now accepted\n        listing.status = Status.ACCEPTED;\n        listing.confirmationBlock = block.number;\n        if(listing.rewardRate < 0) {\n            listing.lastRewardBlock = block.number - _rewardPeriod;\n        } else {\n            if(listing.rewardRate > 0) {\n                uint rewardRate = uint(listing.rewardRate);\n                _maxGenerationSum = _maxGenerationSum.add(rewardRate.mul(rewardRate));\n            }\n\n            listing.lastRewardBlock = block.number;\n        }\n        processRewards(listing);\n\n        //Emit update event\n        emitValidatorRegistryUpdate(listing.tendermintPublicKey, listing.owner, listing.stakedBalance);\n    }\n\n    /** @dev Initiate a listing exit\n        @notice Initiate a listing exit\n        @param msgSender msg.sender from the proxy call\n        @param tendermintPublicKey Hex encoded tendermint public key\n    */\n    function initExit(address msgSender, bytes32 tendermintPublicKey) public isAuthorized {\n        //Load the listing\n        Listing storage listing = _listings[tendermintPublicKey];\n\n        //Listing owner must call this method\n        require(listing.owner == msgSender);\n\n        //Exit immediately if the listing is still in pending status.\n        if(listing.status == Status.PENDING) {\n            //Approve and release tokens to treasury\n            _token.approve(address(_treasury), listing.stakedBalance);\n            _treasury.releaseTokens(msgSender, listing.stakedBalance);\n\n            //Clear listing data and remove from tracking array\n            removeListing(listing);\n\n            return;\n        }\n\n        //Ensure listing is in accepted\n        require(listing.status == Status.ACCEPTED);\n\n        listing.status = Status.EXITING;\n        listing.exitBlock = block.number + _exitPeriod;\n\n        //Emit event\n        emitValidatorRegistryUpdate(listing.tendermintPublicKey, listing.owner, 0);\n    }\n\n    /** @dev Complete a listing exit\n        @notice Complete a listing exit\n        @param msgSender msg.sender from the proxy call\n        @param tendermintPublicKey Hex encoded tendermint public key\n    */\n    function finalizeExit(address msgSender, bytes32 tendermintPublicKey) public isAuthorized {\n        //Load the listing\n        Listing storage listing = _listings[tendermintPublicKey];\n\n        //Listing owner must call this method\n        require(listing.owner == msgSender);\n\n        //The listing must be exiting and past the exit block challenge interrupts this process\n        require(listing.status == Status.EXITING);\n        require(listing.exitBlock <= block.number);\n\n        //Approve and release tokens to treasury\n        _token.approve(address(_treasury), listing.stakedBalance);\n        _treasury.releaseTokens(msgSender, listing.stakedBalance);\n\n        //Clear listing data and remove from tracking array\n        removeListing(listing);\n    }\n\n    //INTERNAL\n    function hasRewardPending(Listing storage l) internal view returns (bool) {\n        return (l.status == Status.ACCEPTED && l.rewardRate != 0 && l.lastRewardBlock + _rewardPeriod <= block.number);\n    }\n\n    function processRewards(Listing storage l) internal {\n        if(hasRewardPending(l)) {\n            uint rewardPeriods = block.number.sub(l.lastRewardBlock).div(_rewardPeriod);\n            if(l.rewardRate > 0) {\n                _token.mintTo(l.owner, uint(l.rewardRate).mul(rewardPeriods));\n            } else {\n                //Tokens to pay up\n                uint tokensToBurn = uint(l.rewardRate * -1).mul(rewardPeriods);\n\n                //Tokens remaining in the treasury\n                uint userTreasuryBalance = _treasury.currentBalance(l.owner);\n\n                if(userTreasuryBalance < tokensToBurn) {\n                    uint tokensRemaining = tokensToBurn.sub(userTreasuryBalance);\n                    if(tokensRemaining >= l.stakedBalance) {  //If more tokens are needed than the listing's staked balance take them all.\n                        tokensRemaining = l.stakedBalance;\n                        l.stakedBalance = 0;\n                    } else { //Take additional tokens from the stakedBalance before the touch and remove.\n                        l.stakedBalance = l.stakedBalance.sub(tokensRemaining);\n                    }\n\n                    //Approve and release tokens to treasury to be burned by user\n                    _token.approve(address(_treasury), tokensRemaining);\n                    _treasury.releaseTokens(l.owner, tokensRemaining);\n\n                    //Burn all the remaining tokens in treasury and burn into the listing stake.\n                    uint totalTokensToBurn = userTreasuryBalance.add(tokensRemaining);\n                    _treasury.burnFrom(l.owner, totalTokensToBurn);\n\n                    touchAndRemoveListing(l);\n                } else {\n                _treasury.burnFrom(l.owner, tokensToBurn);\n                }\n            }\n            l.lastRewardBlock = l.lastRewardBlock.add(_rewardPeriod.mul(rewardPeriods));\n        }\n    }\n\n    function touchAndRemoveListing(Listing storage l) internal {\n        //Emit events to signal listing was to and removed, and voting power has been lost\n        emitValidatorTouchedAndRemoved(l);\n        emitValidatorRegistryUpdate(l.tendermintPublicKey, l.owner, 0);\n\n        //Approve and release tokens to treasury\n        _token.approve(address(_treasury), l.stakedBalance);\n        _treasury.releaseTokens(l.owner, l.stakedBalance);\n\n        //Clear listing data and remove from tracking array\n        removeListing(l);\n    }\n\n    function removeListingKey(bytes32 key) internal {\n        //Removes the listing by key and shortens the array\n        for (uint i = 0; i < _listingKeys.length; i++) {\n            if (_listingKeys[i] == key) {\n                _listingKeys[i] = _listingKeys[_listingKeys.length - 1];\n                _listingKeys.length--;\n                break;\n            }\n        }\n    }\n\n    function sqrt(uint x) internal pure returns (uint y) {\n        uint z = (x + 1) / 2;\n        y = x;\n        while (z < y) {\n            y = z;\n            z = (x / z + z) / 2;\n        }\n    }\n\n    function removeListing(Listing storage l) internal {\n        if(l.rewardRate > 0) {\n            uint rewardRate = uint(l.rewardRate);\n            _maxGenerationSum = _maxGenerationSum.sub(rewardRate.mul(rewardRate));\n        }\n\n        removeListingKey(l.tendermintPublicKey);\n        delete _listings[l.tendermintPublicKey];\n    }\n\n    function emitValidatorRegistryUpdate(bytes32 tendermintPublicKey, address owner, uint stake) internal {\n        bytes32[] memory data = new bytes32[](3);\n        data[0] = tendermintPublicKey;\n        data[1] = bytes32(uint(owner));\n        data[2] = bytes32(stake);\n        e.emitEvent(\"ValidatorRegistryUpdate\", data);\n    }\n\n    function emitValidatorRegistered(uint applicationBlock, bytes32 tendermintPublicKey, address owner, int rewardRate) internal {\n        bytes32[] memory data = new bytes32[](4);\n        data[0] = tendermintPublicKey;\n        data[1] = bytes32(applicationBlock);\n        data[2] = bytes32(uint(owner));\n        data[3] = bytes32(rewardRate);\n        e.emitEvent(\"ValidatorRegistered\", data);\n    }\n\n    function emitValidatorTouchedAndRemoved(Listing storage l) internal {\n        bytes32[] memory data = new bytes32[](4);\n        data[0] = l.tendermintPublicKey;\n        data[2] = bytes32(uint(l.owner));\n        e.emitEvent(\"ValidatorTouchedAndRemoved\", data);\n    }\n\n    function emitValidatorChallenged(bytes32 tendermintPublicKey, address owner, address challenger, uint challengeId, uint pollId) internal {\n        bytes32[] memory data = new bytes32[](5);\n        data[0] = tendermintPublicKey;\n        data[1] = bytes32(uint(owner));\n        data[2] = bytes32(uint(challenger));\n        data[3] = bytes32(challengeId);\n        data[4] = bytes32(pollId);\n        e.emitEvent(\"ValidatorChallenged\", data);\n    }\n}\n",
  "sourcePath": "/Users/freydal/IdeaProjects/kosu-monorepo/packages/solidity/kosu-system-contracts/contracts/validator/ValidatorRegistry.sol",
  "compiler": {
    "name": "solc",
    "version": "0.5.0+commit.1d4f565a.Emscripten.clang"
  },
  "schemaVersion": "3.0.6",
  "updatedAt": "2019-04-23T14:35:54.384Z",
  "devdoc": {
    "author": "Freydal",
    "methods": {
      "applicationPeriod()": {
        "details": "Expose the configured applicationPeriod",
        "return": "Application period length in blocks"
      },
      "challengeListing(address,bytes32)": {
        "details": "Challenge a registered listing",
        "params": {
          "msgSender": "msg.sender from the proxy call",
          "tendermintPublicKey": "Hex encoded tendermint public key"
        }
      },
      "challengePeriod()": {
        "details": "Expose the configured challengePeriod",
        "return": "Challenge period length in blocks"
      },
      "claimRewards(bytes32)": {
        "details": "Claims rewards for a listing",
        "params": {
          "pubKey": "Public key for the listing to have rewards claimed"
        }
      },
      "claimWinnings(address,uint256)": {
        "details": "Claims winnings from a challenge",
        "params": {
          "challengeId": "Challenge id to claim rewards from."
        }
      },
      "commitPeriod()": {
        "details": "Expose the configured commitPeriod",
        "return": "Commit period length in blocks"
      },
      "confirmListing(address,bytes32)": {
        "details": "Confirm a listing registration",
        "params": {
          "msgSender": "msg.sender from the proxy call",
          "tendermintPublicKey": "Hex encoded tendermint public key"
        }
      },
      "constructor": {
        "details": "Create a new ValidatorRegistry implementation",
        "params": {
          "_events": "Deployed EventEmitter address",
          "_treasuryAddress": "Deployed Treasury address",
          "_votingAddress": "Deployed Voting address",
          "auth": "AuthorizedAddresses deployed address"
        }
      },
      "exitPeriod()": {
        "details": "Expose the configured exitPeriod",
        "return": "Exit period length in blocks"
      },
      "finalizeExit(address,bytes32)": {
        "details": "Complete a listing exit",
        "params": {
          "msgSender": "msg.sender from the proxy call",
          "tendermintPublicKey": "Hex encoded tendermint public key"
        }
      },
      "getListing(bytes32)": {
        "details": "Expose listing data",
        "params": {
          "pubKey": "Hex encoded tendermint public key"
        }
      },
      "initExit(address,bytes32)": {
        "details": "Initiate a listing exit",
        "params": {
          "msgSender": "msg.sender from the proxy call",
          "tendermintPublicKey": "Hex encoded tendermint public key"
        }
      },
      "maxRewardRate()": {
        "details": "Calculate the maximum KosuToken a validator can generate",
        "return": "Maximum KosuToken a validator can generate"
      },
      "minimumBalance()": {
        "details": "Expose the configured minimumBalance",
        "return": "Minimum token balance to list and challenge"
      },
      "registerListing(address,bytes32,uint256,int256)": {
        "details": "Register a listing",
        "params": {
          "msgSender": "msg.sender from the proxy call",
          "rewardRate": "The rate tokens are minted or destroyed over the active listings reward periods",
          "tendermintPublicKey": "Hex encoded tendermint public key",
          "tokensToStake": "The number of tokes at stake if the order is challenged"
        }
      },
      "resolveChallenge(bytes32)": {
        "details": "Resolve a challenge",
        "params": {
          "pubKey": "Hex encoded tendermint public key"
        }
      },
      "rewardPeriod()": {
        "details": "Expose the configured rewardPeriod",
        "return": "Reward period length in blocks"
      },
      "stakeholderCut()": {
        "details": "Expose the configured stakeholderCut",
        "return": "Number of tokens the stakeholder gets after a challenge"
      },
      "token()": {
        "details": "Expose the configured KosuToken",
        "return": "Configured KosuToken contract address"
      },
      "treasury()": {
        "details": "Expose the configured Treasury address",
        "return": "Configured Treasury contract address"
      },
      "validators()": {
        "details": "Expose the list of active validators",
        "return": "An array of hex encoded tendermint keys"
      },
      "voting()": {
        "details": "Expose the configured Voting contract address",
        "return": "Configured Voting contract address"
      }
    },
    "title": "ValidatorRegistry"
  },
  "userdoc": {
    "methods": {
      "applicationPeriod()": {
        "notice": "Expose the configured applicationPeriod"
      },
      "challengeListing(address,bytes32)": {
        "notice": "Challenge a registered listing"
      },
      "challengePeriod()": {
        "notice": "Expose the configured challengePeriod"
      },
      "claimRewards(bytes32)": {
        "notice": "Claims rewards for a listing"
      },
      "claimWinnings(address,uint256)": {
        "notice": "Claims winnings from a challenge"
      },
      "commitPeriod()": {
        "notice": "Expose the configured commitPeriod"
      },
      "confirmListing(address,bytes32)": {
        "notice": "Confirm a listing registration"
      },
      "constructor": "Create a new ValidatorRegistry implementation",
      "exitPeriod()": {
        "notice": "Expose the configured exitPeriod"
      },
      "finalizeExit(address,bytes32)": {
        "notice": "Complete a listing exit"
      },
      "getListing(bytes32)": {
        "notice": "Expose listing data"
      },
      "initExit(address,bytes32)": {
        "notice": "Initiate a listing exit"
      },
      "maxRewardRate()": {
        "notice": "Calculate the maximum KosuToken a validator can generate"
      },
      "minimumBalance()": {
        "notice": "Expose the configured minimumBalance"
      },
      "registerListing(address,bytes32,uint256,int256)": {
        "notice": "Register a listing"
      },
      "resolveChallenge(bytes32)": {
        "notice": "Resolve a challenge"
      },
      "rewardPeriod()": {
        "notice": "Expose the configured rewardPeriod"
      },
      "stakeholderCut()": {
        "notice": "Expose the configured stakeholderCut"
      },
      "token()": {
        "notice": "Expose the configured KosuToken"
      },
      "treasury()": {
        "notice": "Expose the configured Treasury address"
      },
      "validators()": {
        "notice": "Expose the list of active validators"
      },
      "voting()": {
        "notice": "Expose the configured Voting contract address"
      }
    }
  }
}