{
  "contractName": "ValidatorRegistryProxy",
  "abi": [
    {
      "inputs": [
        {
          "name": "_registry",
          "type": "address"
        },
        {
          "name": "auth",
          "type": "address"
        }
      ],
      "payable": false,
      "stateMutability": "nonpayable",
      "type": "constructor",
      "signature": "constructor"
    },
    {
      "constant": false,
      "inputs": [
        {
          "name": "implementation",
          "type": "address"
        }
      ],
      "name": "setImplementation",
      "outputs": [],
      "payable": false,
      "stateMutability": "nonpayable",
      "type": "function",
      "signature": "0xd784d426"
    },
    {
      "constant": true,
      "inputs": [],
      "name": "applicationPeriod",
      "outputs": [
        {
          "name": "",
          "type": "uint256"
        }
      ],
      "payable": false,
      "stateMutability": "view",
      "type": "function",
      "signature": "0xd07e98b5"
    },
    {
      "constant": true,
      "inputs": [],
      "name": "commitPeriod",
      "outputs": [
        {
          "name": "",
          "type": "uint256"
        }
      ],
      "payable": false,
      "stateMutability": "view",
      "type": "function",
      "signature": "0xf713b052"
    },
    {
      "constant": true,
      "inputs": [],
      "name": "challengePeriod",
      "outputs": [
        {
          "name": "",
          "type": "uint256"
        }
      ],
      "payable": false,
      "stateMutability": "view",
      "type": "function",
      "signature": "0xf3f480d9"
    },
    {
      "constant": true,
      "inputs": [],
      "name": "exitPeriod",
      "outputs": [
        {
          "name": "",
          "type": "uint256"
        }
      ],
      "payable": false,
      "stateMutability": "view",
      "type": "function",
      "signature": "0x753d7445"
    },
    {
      "constant": true,
      "inputs": [],
      "name": "rewardPeriod",
      "outputs": [
        {
          "name": "",
          "type": "uint256"
        }
      ],
      "payable": false,
      "stateMutability": "view",
      "type": "function",
      "signature": "0xe88dc5b7"
    },
    {
      "constant": true,
      "inputs": [],
      "name": "minimumBalance",
      "outputs": [
        {
          "name": "",
          "type": "uint256"
        }
      ],
      "payable": false,
      "stateMutability": "view",
      "type": "function",
      "signature": "0xb9d1d49b"
    },
    {
      "constant": true,
      "inputs": [],
      "name": "stakeholderCut",
      "outputs": [
        {
          "name": "",
          "type": "uint256"
        }
      ],
      "payable": false,
      "stateMutability": "view",
      "type": "function",
      "signature": "0x8ea17b2d"
    },
    {
      "constant": true,
      "inputs": [],
      "name": "treasury",
      "outputs": [
        {
          "name": "",
          "type": "address"
        }
      ],
      "payable": false,
      "stateMutability": "view",
      "type": "function",
      "signature": "0x61d027b3"
    },
    {
      "constant": true,
      "inputs": [],
      "name": "voting",
      "outputs": [
        {
          "name": "",
          "type": "address"
        }
      ],
      "payable": false,
      "stateMutability": "view",
      "type": "function",
      "signature": "0xfce1ccca"
    },
    {
      "constant": true,
      "inputs": [],
      "name": "token",
      "outputs": [
        {
          "name": "",
          "type": "address"
        }
      ],
      "payable": false,
      "stateMutability": "view",
      "type": "function",
      "signature": "0xfc0c546a"
    },
    {
      "constant": true,
      "inputs": [],
      "name": "maxRewardRate",
      "outputs": [
        {
          "name": "",
          "type": "uint256"
        }
      ],
      "payable": false,
      "stateMutability": "view",
      "type": "function",
      "signature": "0x0d40ffc7"
    },
    {
      "constant": true,
      "inputs": [],
      "name": "validators",
      "outputs": [
        {
          "name": "",
          "type": "bytes32[]"
        }
      ],
      "payable": false,
      "stateMutability": "view",
      "type": "function",
      "signature": "0xca1e7819"
    },
    {
      "constant": true,
      "inputs": [
        {
          "name": "_pubKey",
          "type": "bytes32"
        }
      ],
      "name": "getListing",
      "outputs": [
        {
          "name": "status",
          "type": "uint8"
        },
        {
          "name": "applicationBlock",
          "type": "uint256"
        },
        {
          "name": "tendermintPublicKey",
          "type": "bytes32"
        },
        {
          "name": "owner",
          "type": "address"
        }
      ],
      "payable": false,
      "stateMutability": "view",
      "type": "function",
      "signature": "0x175c0d16"
    },
    {
      "constant": false,
      "inputs": [
        {
          "name": "_pubKey",
          "type": "bytes32"
        },
        {
          "name": "_tokensToStake",
          "type": "uint256"
        },
        {
          "name": "_rewardRate",
          "type": "int256"
        }
      ],
      "name": "registerListing",
      "outputs": [],
      "payable": false,
      "stateMutability": "nonpayable",
      "type": "function",
      "signature": "0xade00a17"
    },
    {
      "constant": false,
      "inputs": [
        {
          "name": "_pubKey",
          "type": "bytes32"
        }
      ],
      "name": "challengeListing",
      "outputs": [],
      "payable": false,
      "stateMutability": "nonpayable",
      "type": "function",
      "signature": "0x9b92ec10"
    },
    {
      "constant": false,
      "inputs": [
        {
          "name": "_pubKey",
          "type": "bytes32"
        }
      ],
      "name": "resolveChallenge",
      "outputs": [],
      "payable": false,
      "stateMutability": "nonpayable",
      "type": "function",
      "signature": "0xd32c943a"
    },
    {
      "constant": false,
      "inputs": [
        {
          "name": "challengeId",
          "type": "uint256"
        }
      ],
      "name": "claimWinnings",
      "outputs": [],
      "payable": false,
      "stateMutability": "nonpayable",
      "type": "function",
      "signature": "0x677bd9ff"
    },
    {
      "constant": false,
      "inputs": [
        {
          "name": "_pubKey",
          "type": "bytes32"
        }
      ],
      "name": "claimRewards",
      "outputs": [],
      "payable": false,
      "stateMutability": "nonpayable",
      "type": "function",
      "signature": "0x7790ddc6"
    },
    {
      "constant": false,
      "inputs": [
        {
          "name": "_pubKey",
          "type": "bytes32"
        }
      ],
      "name": "confirmListing",
      "outputs": [],
      "payable": false,
      "stateMutability": "nonpayable",
      "type": "function",
      "signature": "0x54a4a865"
    },
    {
      "constant": false,
      "inputs": [
        {
          "name": "_pubKey",
          "type": "bytes32"
        }
      ],
      "name": "initExit",
      "outputs": [],
      "payable": false,
      "stateMutability": "nonpayable",
      "type": "function",
      "signature": "0x07b99366"
    },
    {
      "constant": false,
      "inputs": [
        {
          "name": "_pubKey",
          "type": "bytes32"
        }
      ],
      "name": "finalizeExit",
      "outputs": [],
      "payable": false,
      "stateMutability": "nonpayable",
      "type": "function",
      "signature": "0x0960db7c"
    }
  ],
  "bytecode": "0x608060405234801561001057600080fd5b50604051604080610f868339810180604052604081101561003057600080fd5b50805160209091015160008054600160a060020a03928316600160a060020a03199182161790915560018054929093169116179055610f12806100746000396000f3fe6080604052600436106101275763ffffffff7c010000000000000000000000000000000000000000000000000000000060003504166307b99366811461012c5780630960db7c146101585780630d40ffc714610182578063175c0d16146101a957806354a4a8651461021457806361d027b31461023e578063677bd9ff1461026f578063753d7445146102995780637790ddc6146102ae5780638ea17b2d146102d85780639b92ec10146102ed578063ade00a1714610317578063b9d1d49b1461034d578063ca1e781914610362578063d07e98b5146103c7578063d32c943a146103dc578063d784d42614610406578063e88dc5b714610439578063f3f480d91461044e578063f713b05214610463578063fc0c546a14610478578063fce1ccca1461048d575b600080fd5b34801561013857600080fd5b506101566004803603602081101561014f57600080fd5b50356104a2565b005b34801561016457600080fd5b506101566004803603602081101561017b57600080fd5b5035610529565b34801561018e57600080fd5b50610197610595565b60408051918252519081900360200190f35b3480156101b557600080fd5b506101d3600480360360208110156101cc57600080fd5b5035610624565b604051808560048111156101e357fe5b60ff168152602081019490945250604080840192909252600160a060020a0316606083015251908190036080019150f35b34801561022057600080fd5b506101566004803603602081101561023757600080fd5b50356106db565b34801561024a57600080fd5b50610253610747565b60408051600160a060020a039092168252519081900360200190f35b34801561027b57600080fd5b506101566004803603602081101561029257600080fd5b50356107a5565b3480156102a557600080fd5b50610197610811565b3480156102ba57600080fd5b50610156600480360360208110156102d157600080fd5b503561086f565b3480156102e457600080fd5b506101976108d5565b3480156102f957600080fd5b506101566004803603602081101561031057600080fd5b5035610933565b34801561032357600080fd5b506101566004803603606081101561033a57600080fd5b508035906020810135906040013561099f565b34801561035957600080fd5b50610197610a36565b34801561036e57600080fd5b50610377610a94565b60408051602080825283518183015283519192839290830191858101910280838360005b838110156103b357818101518382015260200161039b565b505050509050019250505060405180910390f35b3480156103d357600080fd5b50610197610b82565b3480156103e857600080fd5b50610156600480360360208110156103ff57600080fd5b5035610be0565b34801561041257600080fd5b506101566004803603602081101561042957600080fd5b5035600160a060020a0316610c46565b34801561044557600080fd5b50610197610d10565b34801561045a57600080fd5b50610197610d6e565b34801561046f57600080fd5b50610197610dcc565b34801561048457600080fd5b50610253610e2a565b34801561049957600080fd5b50610253610e88565b600154604080517f878432a6000000000000000000000000000000000000000000000000000000008152336004820152602481018490529051600160a060020a039092169163878432a69160448082019260009290919082900301818387803b15801561050e57600080fd5b505af1158015610522573d6000803e3d6000fd5b5050505050565b600154604080517fff8f3e62000000000000000000000000000000000000000000000000000000008152336004820152602481018490529051600160a060020a039092169163ff8f3e629160448082019260009290919082900301818387803b15801561050e57600080fd5b600154604080517f0d40ffc70000000000000000000000000000000000000000000000000000000081529051600092600160a060020a031691630d40ffc7916004808301926020929190829003018186803b1580156105f357600080fd5b505afa158015610607573d6000803e3d6000fd5b505050506040513d602081101561061d57600080fd5b5051905090565b600154604080517f175c0d16000000000000000000000000000000000000000000000000000000008152600481018490529051600092839283928392600160a060020a03169163175c0d16916024808301926080929190829003018186803b15801561068f57600080fd5b505afa1580156106a3573d6000803e3d6000fd5b505050506040513d60808110156106b957600080fd5b5080516020820151604083015160609093015191989097509195509350915050565b600154604080517f77a2b56f000000000000000000000000000000000000000000000000000000008152336004820152602481018490529051600160a060020a03909216916377a2b56f9160448082019260009290919082900301818387803b15801561050e57600080fd5b600154604080517f61d027b30000000000000000000000000000000000000000000000000000000081529051600092600160a060020a0316916361d027b3916004808301926020929190829003018186803b1580156105f357600080fd5b600154604080517f183085c0000000000000000000000000000000000000000000000000000000008152336004820152602481018490529051600160a060020a039092169163183085c09160448082019260009290919082900301818387803b15801561050e57600080fd5b600154604080517f753d74450000000000000000000000000000000000000000000000000000000081529051600092600160a060020a03169163753d7445916004808301926020929190829003018186803b1580156105f357600080fd5b600154604080517f7790ddc6000000000000000000000000000000000000000000000000000000008152600481018490529051600160a060020a0390921691637790ddc69160248082019260009290919082900301818387803b15801561050e57600080fd5b600154604080517f8ea17b2d0000000000000000000000000000000000000000000000000000000081529051600092600160a060020a031691638ea17b2d916004808301926020929190829003018186803b1580156105f357600080fd5b600154604080517fa0b3030f000000000000000000000000000000000000000000000000000000008152336004820152602481018490529051600160a060020a039092169163a0b3030f9160448082019260009290919082900301818387803b15801561050e57600080fd5b600154604080517f858e48fe0000000000000000000000000000000000000000000000000000000081523360048201526024810186905260448101859052606481018490529051600160a060020a039092169163858e48fe9160848082019260009290919082900301818387803b158015610a1957600080fd5b505af1158015610a2d573d6000803e3d6000fd5b50505050505050565b600154604080517fb9d1d49b0000000000000000000000000000000000000000000000000000000081529051600092600160a060020a03169163b9d1d49b916004808301926020929190829003018186803b1580156105f357600080fd5b600154604080517fca1e78190000000000000000000000000000000000000000000000000000000081529051606092600160a060020a03169163ca1e7819916004808301926000929190829003018186803b158015610af257600080fd5b505afa158015610b06573d6000803e3d6000fd5b505050506040513d6000823e601f3d908101601f191682016040526020811015610b2f57600080fd5b810190808051640100000000811115610b4757600080fd5b82016020810184811115610b5a57600080fd5b8151856020820283011164010000000082111715610b7757600080fd5b509094505050505090565b600154604080517fd07e98b50000000000000000000000000000000000000000000000000000000081529051600092600160a060020a03169163d07e98b5916004808301926020929190829003018186803b1580156105f357600080fd5b600154604080517fd32c943a000000000000000000000000000000000000000000000000000000008152600481018490529051600160a060020a039092169163d32c943a9160248082019260009290919082900301818387803b15801561050e57600080fd5b600054604080517fced3fb9c0000000000000000000000000000000000000000000000000000000081523360048201529051600160a060020a039092169163ced3fb9c91602480820192602092909190829003018186803b158015610caa57600080fd5b505afa158015610cbe573d6000803e3d6000fd5b505050506040513d6020811015610cd457600080fd5b50511515610ce157600080fd5b6001805473ffffffffffffffffffffffffffffffffffffffff1916600160a060020a0392909216919091179055565b600154604080517fe88dc5b70000000000000000000000000000000000000000000000000000000081529051600092600160a060020a03169163e88dc5b7916004808301926020929190829003018186803b1580156105f357600080fd5b600154604080517ff3f480d90000000000000000000000000000000000000000000000000000000081529051600092600160a060020a03169163f3f480d9916004808301926020929190829003018186803b1580156105f357600080fd5b600154604080517ff713b0520000000000000000000000000000000000000000000000000000000081529051600092600160a060020a03169163f713b052916004808301926020929190829003018186803b1580156105f357600080fd5b600154604080517ffc0c546a0000000000000000000000000000000000000000000000000000000081529051600092600160a060020a03169163fc0c546a916004808301926020929190829003018186803b1580156105f357600080fd5b600154604080517ffce1ccca0000000000000000000000000000000000000000000000000000000081529051600092600160a060020a03169163fce1ccca916004808301926020929190829003018186803b1580156105f357600080fdfea165627a7a723058206516a53ddf8cf7ac51a22e7a60a56d57612710bea3c2ca3e458ded74f1cf526d0029",
  "source": "pragma solidity ^0.5.0;\n\nimport \"../validator/IValidatorRegistry.sol\";\nimport \"../base/Authorizable.sol\";\n\n/** @title ValidatorRegistryProxy\n    @author Freydal\n*/\ncontract ValidatorRegistryProxy is Authorizable {\n\n    IValidatorRegistry registry;\n\n    /** @dev Creates a Proxy for a ValidatorRegistry. Accepts an initial implementation that can be overwritten if a replacement is deployed.\n        @notice Creates a Proxy for a ValidatorRegistry. Accepts an initial implementation that can be overwritten if a replacement is deployed.\n        @param _registry Current deployed address for ValidatorRegistry implementation.\n        @param auth AuthorizedAddresses deployed address.\n    */\n    constructor(address _registry, address auth) Authorizable(auth) public {\n        registry = IValidatorRegistry(_registry);\n    }\n\n    /** @dev Set a new ValidatorRegistry if a replacement is deployed.\n        @notice Set a new ValidatorRegistry if a replacement is deployed.\n        @param implementation Deployed address for replacement ValidatorRegistry implementation.\n    */\n    function setImplementation(address implementation) isAuthorized public {\n        registry = IValidatorRegistry(implementation);\n    }\n\n    /** @dev Reads the current registries applicationPeriod.\n        @notice Reads the current registries applicationPeriod.\n        @return Length of applicationPeriod in blocks.\n    */\n    function applicationPeriod() public view returns (uint) {\n        return registry.applicationPeriod();\n    }\n\n    /** @dev Reads the current registries commitPeriod.\n        @notice Reads the current registries commitPeriod.\n        @return Length of commitPeriod in blocks.\n    */\n    function commitPeriod() public view returns (uint) {\n        return registry.commitPeriod();\n    }\n\n    /** @dev Reads the current registries challengePeriod.\n        @notice Reads the current registries challengePeriod.\n        @return Length of challengePeriod in blocks.\n    */\n    function challengePeriod() public view returns (uint) {\n        return registry.challengePeriod();\n    }\n\n    /** @dev Reads the current registries exitPeriod.\n        @notice Reads the current registries exitPeriod.\n        @return Length of exitPeriod in blocks.\n    */\n    function exitPeriod() public view returns (uint) {\n        return registry.exitPeriod();\n    }\n\n    /** @dev Reads the current registries rewardPeriod.\n        @notice Reads the current registries rewardPeriod.\n        @return Length of rewardPeriod in blocks.\n    */\n    function rewardPeriod() public view returns (uint) {\n        return registry.rewardPeriod();\n    }\n\n    /** @dev Reads the current registries minimumBalance\n        @notice Reads the current registries minimumBalance\n        @return Minimum balance for listings and challenges.\n    */\n    function minimumBalance() public view returns (uint) {\n        return registry.minimumBalance();\n    }\n\n    /** @dev Reads the current registries stakeholderCut\n        @notice Reads the current registries stakeholderCut\n        @return Number of tokens the stakeholder gets after a challenge\n    */\n    function stakeholderCut() public view returns (uint) {\n        return registry.stakeholderCut();\n    }\n\n    /** @dev Reads the current registries treasury contract address.\n        @notice Reads the current registries treasury contract address.\n        @return Address of Treasury\n    */\n    function treasury() external view returns (address) {\n        return registry.treasury();\n    }\n\n    /** @dev Reads the current registries voting contract address.\n        @notice Reads the current registries voting contract address.\n        @return Address of Voting.\n    */\n    function voting() external view returns (address) {\n        return registry.voting();\n    }\n\n    /** @dev Reads the current registries token contract address.\n        @notice Reads the current registries token contract address.\n        @return Address of ERC20 token used.\n    */\n    function token() external view returns (address) {\n        return registry.token();\n    }\n\n    /** @dev Calculate the maximum KosuToken a validator can generate for the current registry\n        @notice Calculate the maximum KosuToken a validator can generate for the current registry\n        @return Maximum KosuToken a validator can generate\n    */\n    function maxRewardRate() external view returns (uint) {\n        return registry.maxRewardRate();\n    }\n\n    /** @dev Reads the current registries current validator keys.\n        @notice Reads the current registries current validator keys.\n        @return An array of bytes32 hex encoded tendermint public keys.\n    */\n    function validators() external view returns (bytes32[] memory) {\n        return registry.validators();\n    }\n\n    /** @dev Reads the current registries listing entry for provided key.\n        @notice Reads the current registries listing entry for provided key.\n        @param _pubKey hex encoded tendermint public used as listing mapping key\n        @return TODO currently returing some data that was used in the past.  will need a pass to update output\n    */\n    function getListing(bytes32 _pubKey) external view returns\n        (IValidatorRegistry.Status status, uint applicationBlock, bytes32 tendermintPublicKey, address owner)\n    {\n        return registry.getListing(_pubKey);\n    }\n\n    /** @dev Executes registerListing on the current registry.\n        @notice Executes registerListing on the current registry.\n        @param _pubKey hex encoded tendermint public used as listing mapping key\n        @param _tokensToStake The number of tokes at stake if the order is challenged\n        @param _rewardRate The rate tokens are minted or destroyed over the active listings reward periods\n    */\n    function registerListing(bytes32 _pubKey, uint _tokensToStake, int _rewardRate) external {\n        registry.registerListing(msg.sender, _pubKey, _tokensToStake, _rewardRate);\n    }\n\n    /** @dev Executes challenge on the current registry.\n        @notice Executes challenge on the current registry.\n        @param _pubKey hex encoded tendermint public used as listing mapping key\n    */\n    function challengeListing(bytes32 _pubKey) external {\n        registry.challengeListing(msg.sender, _pubKey);\n    }\n\n    /** @dev Executes resolveChallenge on the current registry.\n        @notice Executes resolveChallenge on the current registry.\n        @param _pubKey hex encoded tendermint public used as listing mapping key\n    */\n    function resolveChallenge(bytes32 _pubKey) public {\n        registry.resolveChallenge(_pubKey);\n    }\n\n    /** @dev Executes claimWinnings on the current registry.\n        @notice Executes claimWinnings on the current registry.\n        @param challengeId Id of challenge user may have tokens rewards in.\n    */\n    function claimWinnings(uint challengeId) public {\n        registry.claimWinnings(msg.sender, challengeId);\n    }\n\n    /** @dev Executes claimRewards on the current registry.\n        @notice Executes claimRewards on the current registry.\n        @param _pubKey Public key of listing that rewards need to be processed for\n    */\n    function claimRewards(bytes32 _pubKey) public {\n        registry.claimRewards(_pubKey);\n    }\n\n    /** @dev Executes confirmListing on the current registry.\n        @notice Executes confirmListing on the current registry.\n        @param _pubKey hex encoded tendermint public used as listing mapping key\n    */\n    function confirmListing(bytes32 _pubKey) external {\n        registry.confirmListing(msg.sender, _pubKey);\n    }\n\n    /** @dev Executes initExit on the current registry.\n        @notice Executes initExit on the current registry.\n        @param _pubKey hex encoded tendermint public used as listing mapping key\n    */\n    function initExit(bytes32 _pubKey) external {\n        registry.initExit(msg.sender, _pubKey);\n    }\n\n    /** @dev Executes finalizeExit on the current registry.\n        @notice Executes finalizeExit on the current registry.\n        @param _pubKey hex encoded tendermint public used as listing mapping key\n    */\n    function finalizeExit(bytes32 _pubKey) external {\n        registry.finalizeExit(msg.sender, _pubKey);\n    }\n}\n",
  "sourcePath": "/Users/freydal/IdeaProjects/kosu-monorepo/packages/solidity/kosu-system-contracts/contracts/external/ValidatorRegistryProxy.sol",
  "compiler": {
    "name": "solc",
    "version": "0.5.0+commit.1d4f565a.Emscripten.clang"
  },
  "schemaVersion": "3.0.6",
  "updatedAt": "2019-04-23T14:35:54.340Z",
  "devdoc": {
    "author": "Freydal",
    "methods": {
      "applicationPeriod()": {
        "details": "Reads the current registries applicationPeriod.",
        "return": "Length of applicationPeriod in blocks."
      },
      "challengeListing(bytes32)": {
        "details": "Executes challenge on the current registry.",
        "params": {
          "_pubKey": "hex encoded tendermint public used as listing mapping key"
        }
      },
      "challengePeriod()": {
        "details": "Reads the current registries challengePeriod.",
        "return": "Length of challengePeriod in blocks."
      },
      "claimRewards(bytes32)": {
        "details": "Executes claimRewards on the current registry.",
        "params": {
          "_pubKey": "Public key of listing that rewards need to be processed for"
        }
      },
      "claimWinnings(uint256)": {
        "details": "Executes claimWinnings on the current registry.",
        "params": {
          "challengeId": "Id of challenge user may have tokens rewards in."
        }
      },
      "commitPeriod()": {
        "details": "Reads the current registries commitPeriod.",
        "return": "Length of commitPeriod in blocks."
      },
      "confirmListing(bytes32)": {
        "details": "Executes confirmListing on the current registry.",
        "params": {
          "_pubKey": "hex encoded tendermint public used as listing mapping key"
        }
      },
      "constructor": {
        "details": "Creates a Proxy for a ValidatorRegistry. Accepts an initial implementation that can be overwritten if a replacement is deployed.",
        "params": {
          "_registry": "Current deployed address for ValidatorRegistry implementation.",
          "auth": "AuthorizedAddresses deployed address."
        }
      },
      "exitPeriod()": {
        "details": "Reads the current registries exitPeriod.",
        "return": "Length of exitPeriod in blocks."
      },
      "finalizeExit(bytes32)": {
        "details": "Executes finalizeExit on the current registry.",
        "params": {
          "_pubKey": "hex encoded tendermint public used as listing mapping key"
        }
      },
      "getListing(bytes32)": {
        "details": "Reads the current registries listing entry for provided key.",
        "params": {
          "_pubKey": "hex encoded tendermint public used as listing mapping key"
        },
        "return": "TODO currently returing some data that was used in the past.  will need a pass to update output"
      },
      "initExit(bytes32)": {
        "details": "Executes initExit on the current registry.",
        "params": {
          "_pubKey": "hex encoded tendermint public used as listing mapping key"
        }
      },
      "maxRewardRate()": {
        "details": "Calculate the maximum KosuToken a validator can generate for the current registry",
        "return": "Maximum KosuToken a validator can generate"
      },
      "minimumBalance()": {
        "details": "Reads the current registries minimumBalance",
        "return": "Minimum balance for listings and challenges."
      },
      "registerListing(bytes32,uint256,int256)": {
        "details": "Executes registerListing on the current registry.",
        "params": {
          "_pubKey": "hex encoded tendermint public used as listing mapping key",
          "_rewardRate": "The rate tokens are minted or destroyed over the active listings reward periods",
          "_tokensToStake": "The number of tokes at stake if the order is challenged"
        }
      },
      "resolveChallenge(bytes32)": {
        "details": "Executes resolveChallenge on the current registry.",
        "params": {
          "_pubKey": "hex encoded tendermint public used as listing mapping key"
        }
      },
      "rewardPeriod()": {
        "details": "Reads the current registries rewardPeriod.",
        "return": "Length of rewardPeriod in blocks."
      },
      "setImplementation(address)": {
        "details": "Set a new ValidatorRegistry if a replacement is deployed.",
        "params": {
          "implementation": "Deployed address for replacement ValidatorRegistry implementation."
        }
      },
      "stakeholderCut()": {
        "details": "Reads the current registries stakeholderCut",
        "return": "Number of tokens the stakeholder gets after a challenge"
      },
      "token()": {
        "details": "Reads the current registries token contract address.",
        "return": "Address of ERC20 token used."
      },
      "treasury()": {
        "details": "Reads the current registries treasury contract address.",
        "return": "Address of Treasury"
      },
      "validators()": {
        "details": "Reads the current registries current validator keys.",
        "return": "An array of bytes32 hex encoded tendermint public keys."
      },
      "voting()": {
        "details": "Reads the current registries voting contract address.",
        "return": "Address of Voting."
      }
    },
    "title": "ValidatorRegistryProxy"
  },
  "userdoc": {
    "methods": {
      "applicationPeriod()": {
        "notice": "Reads the current registries applicationPeriod."
      },
      "challengeListing(bytes32)": {
        "notice": "Executes challenge on the current registry."
      },
      "challengePeriod()": {
        "notice": "Reads the current registries challengePeriod."
      },
      "claimRewards(bytes32)": {
        "notice": "Executes claimRewards on the current registry."
      },
      "claimWinnings(uint256)": {
        "notice": "Executes claimWinnings on the current registry."
      },
      "commitPeriod()": {
        "notice": "Reads the current registries commitPeriod."
      },
      "confirmListing(bytes32)": {
        "notice": "Executes confirmListing on the current registry."
      },
      "constructor": "Creates a Proxy for a ValidatorRegistry. Accepts an initial implementation that can be overwritten if a replacement is deployed.",
      "exitPeriod()": {
        "notice": "Reads the current registries exitPeriod."
      },
      "finalizeExit(bytes32)": {
        "notice": "Executes finalizeExit on the current registry."
      },
      "getListing(bytes32)": {
        "notice": "Reads the current registries listing entry for provided key."
      },
      "initExit(bytes32)": {
        "notice": "Executes initExit on the current registry."
      },
      "maxRewardRate()": {
        "notice": "Calculate the maximum KosuToken a validator can generate for the current registry"
      },
      "minimumBalance()": {
        "notice": "Reads the current registries minimumBalance"
      },
      "registerListing(bytes32,uint256,int256)": {
        "notice": "Executes registerListing on the current registry."
      },
      "resolveChallenge(bytes32)": {
        "notice": "Executes resolveChallenge on the current registry."
      },
      "rewardPeriod()": {
        "notice": "Reads the current registries rewardPeriod."
      },
      "setImplementation(address)": {
        "notice": "Set a new ValidatorRegistry if a replacement is deployed."
      },
      "stakeholderCut()": {
        "notice": "Reads the current registries stakeholderCut"
      },
      "token()": {
        "notice": "Reads the current registries token contract address."
      },
      "treasury()": {
        "notice": "Reads the current registries treasury contract address."
      },
      "validators()": {
        "notice": "Reads the current registries current validator keys."
      },
      "voting()": {
        "notice": "Reads the current registries voting contract address."
      }
    }
  }
}