{
  "contractName": "Voting",
  "abi": [
    {
      "constant": true,
      "inputs": [],
      "name": "nextPollId",
      "outputs": [
        {
          "name": "",
          "type": "uint256"
        }
      ],
      "payable": false,
      "stateMutability": "view",
      "type": "function",
      "signature": "0x2b786571"
    },
    {
      "inputs": [
        {
          "name": "treasuryAddress",
          "type": "address"
        },
        {
          "name": "_emitterAddress",
          "type": "address"
        }
      ],
      "payable": false,
      "stateMutability": "nonpayable",
      "type": "constructor",
      "signature": "constructor"
    },
    {
      "constant": false,
      "inputs": [
        {
          "name": "_commitEndBlock",
          "type": "uint256"
        },
        {
          "name": "_revealEndBlock",
          "type": "uint256"
        }
      ],
      "name": "createPoll",
      "outputs": [
        {
          "name": "",
          "type": "uint256"
        }
      ],
      "payable": false,
      "stateMutability": "nonpayable",
      "type": "function",
      "signature": "0xbad62d20"
    },
    {
      "constant": false,
      "inputs": [
        {
          "name": "_pollId",
          "type": "uint256"
        },
        {
          "name": "_vote",
          "type": "bytes32"
        },
        {
          "name": "_tokensToCommit",
          "type": "uint256"
        }
      ],
      "name": "commitVote",
      "outputs": [],
      "payable": false,
      "stateMutability": "nonpayable",
      "type": "function",
      "signature": "0xfa07153a"
    },
    {
      "constant": false,
      "inputs": [
        {
          "name": "_pollId",
          "type": "uint256"
        },
        {
          "name": "_voteOption",
          "type": "uint256"
        },
        {
          "name": "_voteSalt",
          "type": "uint256"
        }
      ],
      "name": "revealVote",
      "outputs": [],
      "payable": false,
      "stateMutability": "nonpayable",
      "type": "function",
      "signature": "0xb11d8bb8"
    },
    {
      "constant": true,
      "inputs": [
        {
          "name": "_pollId",
          "type": "uint256"
        }
      ],
      "name": "winningOption",
      "outputs": [
        {
          "name": "",
          "type": "uint256"
        }
      ],
      "payable": false,
      "stateMutability": "view",
      "type": "function",
      "signature": "0x0dca7ed8"
    },
    {
      "constant": true,
      "inputs": [
        {
          "name": "_pollId",
          "type": "uint256"
        }
      ],
      "name": "totalWinningTokens",
      "outputs": [
        {
          "name": "",
          "type": "uint256"
        }
      ],
      "payable": false,
      "stateMutability": "view",
      "type": "function",
      "signature": "0x1b89ef0f"
    },
    {
      "constant": true,
      "inputs": [
        {
          "name": "_pollId",
          "type": "uint256"
        },
        {
          "name": "_user",
          "type": "address"
        }
      ],
      "name": "userWinningTokens",
      "outputs": [
        {
          "name": "tokens",
          "type": "uint256"
        }
      ],
      "payable": false,
      "stateMutability": "view",
      "type": "function",
      "signature": "0xf8a2e510"
    }
  ],
  "bytecode": "0x6080604052600160025534801561001557600080fd5b506040516040806109ec8339810180604052604081101561003557600080fd5b50805160209091015160018054600160a060020a03928316600160a060020a03199182161790915560008054929093169116179055610973806100796000396000f3fe6080604052600436106100825763ffffffff7c01000000000000000000000000000000000000000000000000000000006000350416630dca7ed881146100875780631b89ef0f146100c35780632b786571146100ed578063b11d8bb814610102578063bad62d201461013a578063f8a2e5101461016a578063fa07153a146101a3575b600080fd5b34801561009357600080fd5b506100b1600480360360208110156100aa57600080fd5b50356101d9565b60408051918252519081900360200190f35b3480156100cf57600080fd5b506100b1600480360360208110156100e657600080fd5b5035610259565b3480156100f957600080fd5b506100b16102d9565b34801561010e57600080fd5b506101386004803603606081101561012557600080fd5b50803590602081013590604001356102df565b005b34801561014657600080fd5b506100b16004803603604081101561015d57600080fd5b50803590602001356104ea565b34801561017657600080fd5b506100b16004803603604081101561018d57600080fd5b5080359060200135600160a060020a03166106a8565b3480156101af57600080fd5b50610138600480360360608110156101c657600080fd5b5080359060208101359060400135610797565b60006101e36108db565b50600082815260036020818152604092839020835160c081018552815481526001820154600160a060020a03169281019290925260028101549382019390935290820154606082018190526004830154608083015260059092015460a082015290431161024f57600080fd5b6080015192915050565b60006102636108db565b50600082815260036020818152604092839020835160c081018552815481526001820154600160a060020a03169281019290925260028101549382019390935290820154606082018190526004830154608083015260059092015460a08201529043116102cf57600080fd5b60a0015192915050565b60025481565b6000838152600360209081526040808320338452600981019092529091206002820154431161030d57600080fd5b600382015443111561031e57600080fd5b33600090815260078301602052604090205460ff16151561033e57600080fd5b33600090815260088301602052604090205460ff161561035d57600080fd5b6001810154600054604080517f5121220c0000000000000000000000000000000000000000000000000000000081523360048201529051600160a060020a0390921691635121220c91602480820192602092909190829003018186803b1580156103c657600080fd5b505afa1580156103da573d6000803e3d6000fd5b505050506040513d60208110156103f057600080fd5b505110156103fd57600080fd5b604080516020808201879052818301869052825180830384018152606090920190925280519101208154811461043257600080fd5b60028201849055600382018590553360009081526008840160209081526040808320805460ff1916600190811790915585015488845260068701909252909120546104829163ffffffff6108c216565b6000868152600685016020526040902055600483015485148015906104ba575060058301546000868152600685016020526040902054115b156104c757600483018590555b505060048101546000908152600682016020526040902054600590910155505050565b60008183106104f857600080fd5b600280546000818152600360208190526040918290209283556001808401805473ffffffffffffffffffffffffffffffffffffffff191633179055838501889055908301869055835401835580518381526060818101909252919290919081602001602082028038833950505060018301548151919250600160a060020a0316908290600090811061058657fe5b6020908102909101015281548151829060019081106105a157fe5b6020908102909101810191909152600154604080517f2790240100000000000000000000000000000000000000000000000000000000815260048101918252600b60448201527f506f6c6c437265617465640000000000000000000000000000000000000000006064820152608060248201908152855160848301528551600160a060020a039094169463279024019487949384939260a490910191868201910280838360005b83811015610660578181015183820152602001610648565b505050509050019350505050600060405180830381600087803b15801561068657600080fd5b505af115801561069a573d6000803e3d6000fd5b505092549695505050505050565b60006106b26108db565b50600083815260036020818152604092839020835160c081018552815481526001820154600160a060020a03169281019290925260028101549382019390935290820154606082018190526004830154608083015260059092015460a082015290431161071e57600080fd5b61072661091b565b506000848152600360208181526040808420600160a060020a038816855260090182529283902083516080818101865282548252600183015493820193909352600282015494810194909452909101546060830181905290830151141561078f57806020015192505b505092915050565b60008381526003602090815260408083203384526009810190925290912060028201544311156107c657600080fd5b33600090815260078301602052604090205460ff16156107e557600080fd5b600054604080517f5121220c0000000000000000000000000000000000000000000000000000000081523360048201529051670de0b6b3a764000092600160a060020a031691635121220c916024808301926020929190829003018186803b15801561085057600080fd5b505afa158015610864573d6000803e3d6000fd5b505050506040513d602081101561087a57600080fd5b5051101561088757600080fd5b6000831161089457600080fd5b6001808201939093559290925533600090815260079092016020526040909120805460ff1916909117905550565b6000828201838110156108d457600080fd5b9392505050565b60c060405190810160405280600081526020016000600160a060020a03168152602001600081526020016000815260200160008152602001600081525090565b60806040519081016040528060008019168152602001600081526020016000815260200160008152509056fea165627a7a72305820a7e6514a653075c1225cd258271b95661bf5896822c0c91a58fe7d805a6cf06e0029",
  "source": "pragma solidity ^0.5.0;\n\nimport \"../treasury/Treasury.sol\";\nimport \"../event/EventEmitter.sol\";\nimport \"openzeppelin-solidity/contracts/math/SafeMath.sol\";\n\n/** @title Voting\n    @author Freydal\n*/\ncontract Voting {\n    using SafeMath for uint;\n\n    Treasury private treasury;\n    EventEmitter private emitter;\n    uint public nextPollId = 1;\n    mapping(uint => Poll) polls;\n\n    struct Poll {\n        uint id;\n        address creator;\n        uint commitEndBlock;\n        uint revealEndBlock;\n        uint currentLeadingOption;\n        uint leadingTokens;\n        mapping(uint => uint) voteValues;\n        mapping(address => bool) didCommit;\n        mapping(address => bool) didReveal;\n        mapping(address => Vote) votes;\n    }\n\n    struct Vote {\n        bytes32 hiddenVote;\n        uint tokensCommitted;\n        uint salt;\n        uint voteOption; //TODO: what do we want Vote to be as far as datat type  bool vs uint;\n    }\n\n    /** @dev Create a new voting engine\n        @notice Create a new voting engine\n        @param treasuryAddress Deployed Treasury address\n        @param _emitterAddress Deployed EventEmitter address\n    */\n    constructor(address treasuryAddress, address _emitterAddress) public {\n        emitter = EventEmitter(_emitterAddress);\n        treasury = Treasury(treasuryAddress);\n    }\n\n    /** @dev Create a new poll to accept votes based on the configuration\n        @notice Create a new poll to accept votes based on the configuration\n        @param _commitEndBlock Block number when commit phase ends\n        @param _revealEndBlock Block number when reveal phase ends\n        @return Poll index number. Will be used as the key for interacting with a vote.\n    */\n    function createPoll(uint _commitEndBlock, uint _revealEndBlock) public returns (uint) {\n        //Reveal end after commit\n        require(_commitEndBlock < _revealEndBlock);\n\n        //Set poll data\n        Poll storage p = polls[nextPollId];\n        p.id = nextPollId;\n        p.creator = msg.sender;\n        p.commitEndBlock = _commitEndBlock;\n        p.revealEndBlock = _revealEndBlock;\n\n        //Increase next poll index\n        nextPollId++;\n\n        //Format data and emit event\n        bytes32[] memory data = new bytes32[](2);\n        data[0] = bytes32(uint(p.creator));\n        data[1] = bytes32(p.id);\n        //TODO: emit commit end and reveal end\n        emitter.emitEvent('PollCreated', data);\n\n        //Return the poll id\n        return p.id;\n    }\n\n    /** @dev Commit a vote in a poll to be later revealed\n        @notice Commit a vote in a poll to be later revealed\n        @param _pollId Poll index to act upon\n        @param _vote Hash encoded vote\n        @param _tokensToCommit Number of tokens to commit to vote\n    */\n    function commitVote(uint _pollId, bytes32 _vote, uint _tokensToCommit) public {\n        //load Poll and Vote\n        Poll storage p = polls[_pollId];\n        Vote storage v = p.votes[msg.sender];\n\n        //Ensure commit phase hasn't ended, the user has not committed and has adequate balance in the treasury\n        require(block.number <= p.commitEndBlock);\n        require(!p.didCommit[msg.sender]);\n        require(treasury.systemBalance(msg.sender) >= 1 ether);\n        require(_tokensToCommit > 0);\n\n        //Set the tokens committed hidden vote data\n        v.tokensCommitted = _tokensToCommit;\n        v.hiddenVote = _vote;\n\n        //Track voter address and set did commit.\n        p.didCommit[msg.sender] = true;\n    }\n\n    /** @dev Reveal a previously committed vote\n        @notice Reveal a previously committed vote\n        @param _pollId Poll index to act upon\n        @param _voteOption User vote option\n        @param _voteSalt Salt used to in hash to obfuscate vote option\n    */\n    function revealVote(uint _pollId, uint _voteOption, uint _voteSalt) public {\n        Poll storage p = polls[_pollId];\n        Vote storage v = p.votes[msg.sender];\n\n        // Ensure commit phase has passed,  reveal phase has not.  User has commited but not revealed.  User has adequate balance in the treasury.\n        require(block.number > p.commitEndBlock);\n        require(block.number <= p.revealEndBlock);\n        require(p.didCommit[msg.sender]);\n        require(!p.didReveal[msg.sender]);\n        require(treasury.systemBalance(msg.sender) >= v.tokensCommitted);\n\n        //Calculate and compare the commited vote\n        bytes32 exposedVote = keccak256(abi.encodePacked(_voteOption, _voteSalt));\n        require(v.hiddenVote == exposedVote);\n\n        //Store info from a valid revealed vote. Remove the pending vote.\n        v.salt = _voteSalt;\n        v.voteOption = _voteOption;\n        p.didReveal[msg.sender] = true;\n        p.voteValues[_voteOption] = p.voteValues[_voteOption].add(v.tokensCommitted);\n\n        //Update winner and tracking\n        if(p.currentLeadingOption != _voteOption && p.voteValues[_voteOption] > p.leadingTokens) {\n            p.currentLeadingOption = _voteOption;\n        }\n\n        p.leadingTokens = p.voteValues[p.currentLeadingOption];\n    }\n\n    function winningOption(uint _pollId) public view returns (uint) {\n        Poll memory p = polls[_pollId];\n        require(p.revealEndBlock < block.number);\n        return p.currentLeadingOption;\n    }\n\n    function totalWinningTokens(uint _pollId) public view returns (uint) {\n        Poll memory p = polls[_pollId];\n        require(p.revealEndBlock < block.number);\n        return p.leadingTokens;\n    }\n\n    function userWinningTokens(uint _pollId, address _user) public view returns (uint tokens) {\n        Poll memory p = polls[_pollId];\n        require(p.revealEndBlock < block.number);\n        Vote memory v = polls[_pollId].votes[_user];\n\n        if(p.currentLeadingOption == v.voteOption) {\n            tokens = v.tokensCommitted;\n        }\n\n        return tokens;\n    }\n\n    //INTERNAL\n\n}\n",
  "sourcePath": "/Users/hen/GitHub/kosu-monorepo/packages/solidity/kosu-system-contracts/contracts/voting/Voting.sol",
  "compiler": {
    "name": "solc",
    "version": "0.5.0+commit.1d4f565a.Emscripten.clang"
  },
  "schemaVersion": "3.0.6",
  "updatedAt": "2019-04-27T00:45:01.722Z",
  "devdoc": {
    "author": "Freydal",
    "methods": {
      "commitVote(uint256,bytes32,uint256)": {
        "details": "Commit a vote in a poll to be later revealed",
        "params": {
          "_pollId": "Poll index to act upon",
          "_tokensToCommit": "Number of tokens to commit to vote",
          "_vote": "Hash encoded vote"
        }
      },
      "constructor": {
        "details": "Create a new voting engine",
        "params": {
          "_emitterAddress": "Deployed EventEmitter address",
          "treasuryAddress": "Deployed Treasury address"
        }
      },
      "createPoll(uint256,uint256)": {
        "details": "Create a new poll to accept votes based on the configuration",
        "params": {
          "_commitEndBlock": "Block number when commit phase ends",
          "_revealEndBlock": "Block number when reveal phase ends"
        },
        "return": "Poll index number. Will be used as the key for interacting with a vote."
      },
      "revealVote(uint256,uint256,uint256)": {
        "details": "Reveal a previously committed vote",
        "params": {
          "_pollId": "Poll index to act upon",
          "_voteOption": "User vote option",
          "_voteSalt": "Salt used to in hash to obfuscate vote option"
        }
      }
    },
    "title": "Voting"
  },
  "userdoc": {
    "methods": {
      "commitVote(uint256,bytes32,uint256)": {
        "notice": "Commit a vote in a poll to be later revealed"
      },
      "constructor": "Create a new voting engine",
      "createPoll(uint256,uint256)": {
        "notice": "Create a new poll to accept votes based on the configuration"
      },
      "revealVote(uint256,uint256,uint256)": {
        "notice": "Reveal a previously committed vote"
      }
    }
  }
}