{
  "contractName": "PosterRegistry",
  "abi": [
    {
      "inputs": [
        {
          "name": "_treasuryAddress",
          "type": "address"
        },
        {
          "name": "_events",
          "type": "address"
        },
        {
          "name": "_auth",
          "type": "address"
        }
      ],
      "payable": false,
      "stateMutability": "nonpayable",
      "type": "constructor",
      "signature": "constructor"
    },
    {
      "constant": true,
      "inputs": [],
      "name": "tokensContributed",
      "outputs": [
        {
          "name": "",
          "type": "uint256"
        }
      ],
      "payable": false,
      "stateMutability": "view",
      "type": "function",
      "signature": "0xd244ac32"
    },
    {
      "constant": true,
      "inputs": [],
      "name": "token",
      "outputs": [
        {
          "name": "",
          "type": "address"
        }
      ],
      "payable": false,
      "stateMutability": "view",
      "type": "function",
      "signature": "0xfc0c546a"
    },
    {
      "constant": true,
      "inputs": [],
      "name": "treasury",
      "outputs": [
        {
          "name": "",
          "type": "address"
        }
      ],
      "payable": false,
      "stateMutability": "view",
      "type": "function",
      "signature": "0x61d027b3"
    },
    {
      "constant": true,
      "inputs": [
        {
          "name": "a",
          "type": "address"
        }
      ],
      "name": "tokensRegisteredFor",
      "outputs": [
        {
          "name": "",
          "type": "uint256"
        }
      ],
      "payable": false,
      "stateMutability": "view",
      "type": "function",
      "signature": "0xa5988a6f"
    },
    {
      "constant": false,
      "inputs": [
        {
          "name": "msgSender",
          "type": "address"
        },
        {
          "name": "amount",
          "type": "uint256"
        }
      ],
      "name": "registerTokens",
      "outputs": [],
      "payable": false,
      "stateMutability": "nonpayable",
      "type": "function",
      "signature": "0x89c966c5"
    },
    {
      "constant": false,
      "inputs": [
        {
          "name": "msgSender",
          "type": "address"
        },
        {
          "name": "amount",
          "type": "uint256"
        }
      ],
      "name": "releaseTokens",
      "outputs": [],
      "payable": false,
      "stateMutability": "nonpayable",
      "type": "function",
      "signature": "0xf40d71f1"
    }
  ],
  "bytecode": "0x6080604052600060025534801561001557600080fd5b506040516060806108788339810180604052606081101561003557600080fd5b50805160208083015160409384015160008054600160a060020a03808416600160a060020a0319928316179092556004805483881692169190911780825587517ffe2ada6b000000000000000000000000000000000000000000000000000000008152975196979496939592169363fe2ada6b9381830193929091829003018186803b1580156100c457600080fd5b505afa1580156100d8573d6000803e3d6000fd5b505050506040513d60208110156100ee57600080fd5b505160038054600160a060020a03928316600160a060020a03199182161790915560058054949092169316929092179091555050610747806101316000396000f3fe6080604052600436106100775763ffffffff7c010000000000000000000000000000000000000000000000000000000060003504166361d027b3811461007c57806389c966c5146100ad578063a5988a6f146100e8578063d244ac321461012d578063f40d71f114610142578063fc0c546a1461017b575b600080fd5b34801561008857600080fd5b50610091610190565b60408051600160a060020a039092168252519081900360200190f35b3480156100b957600080fd5b506100e6600480360360408110156100d057600080fd5b50600160a060020a03813516906020013561019f565b005b3480156100f457600080fd5b5061011b6004803603602081101561010b57600080fd5b5035600160a060020a031661032a565b60408051918252519081900360200190f35b34801561013957600080fd5b5061011b61033b565b34801561014e57600080fd5b506100e66004803603604081101561016557600080fd5b50600160a060020a038135169060200135610341565b34801561018757600080fd5b50610091610566565b600454600160a060020a031690565b600054604080517fced3fb9c0000000000000000000000000000000000000000000000000000000081523360048201529051600160a060020a039092169163ced3fb9c91602480820192602092909190829003018186803b15801561020357600080fd5b505afa158015610217573d6000803e3d6000fd5b505050506040513d602081101561022d57600080fd5b5051151561023a57600080fd5b60048054604080517ffe417fa5000000000000000000000000000000000000000000000000000000008152600160a060020a0386811694820194909452602481018590529051929091169163fe417fa59160448082019260009290919082900301818387803b1580156102ac57600080fd5b505af11580156102c0573d6000803e3d6000fd5b50506002546102d8925090508263ffffffff61057516565b600255600160a060020a038216600090815260016020526040902054610304908263ffffffff61057516565b600160a060020a0383166000908152600160205260409020556103268261058e565b5050565b6000610335826106eb565b92915050565b60025490565b600054604080517fced3fb9c0000000000000000000000000000000000000000000000000000000081523360048201529051600160a060020a039092169163ced3fb9c91602480820192602092909190829003018186803b1580156103a557600080fd5b505afa1580156103b9573d6000803e3d6000fd5b505050506040513d60208110156103cf57600080fd5b505115156103dc57600080fd5b60035460048054604080517f095ea7b3000000000000000000000000000000000000000000000000000000008152600160a060020a0392831693810193909352602483018590525192169163095ea7b3916044808201926020929091908290030181600087803b15801561044f57600080fd5b505af1158015610463573d6000803e3d6000fd5b505050506040513d602081101561047957600080fd5b505060048054604080517ff40d71f1000000000000000000000000000000000000000000000000000000008152600160a060020a0386811694820194909452602481018590529051929091169163f40d71f19160448082019260009290919082900301818387803b1580156104ed57600080fd5b505af1158015610501573d6000803e3d6000fd5b505050600160a060020a03831660009081526001602052604090205461052e91508263ffffffff61070616565b600160a060020a03831660009081526001602052604090205560025461055a908263ffffffff61070616565b6002556103268261058e565b600354600160a060020a031690565b60008282018381101561058757600080fd5b9392505050565b60408051600280825260608083018452926020830190803883395050815191925050600160a060020a03831690829060009081106105c857fe5b602090810290910101526105db826106eb565b8151829060019081106105ea57fe5b6020908102909101810191909152600554604080517f2790240100000000000000000000000000000000000000000000000000000000815260048101918252601460448201527f506f7374657252656769737472795570646174650000000000000000000000006064820152608060248201908152855160848301528551600160a060020a039094169463279024019487949384939260a490910191868201910280838360005b838110156106a9578181015183820152602001610691565b505050509050019350505050600060405180830381600087803b1580156106cf57600080fd5b505af11580156106e3573d6000803e3d6000fd5b505050505050565b600160a060020a031660009081526001602052604090205490565b60008282111561071557600080fd5b5090039056fea165627a7a723058209bf169658f2a85f47e6266c556ca0d5e14727b5e04919850320cf8491f824c190029",
  "source": "pragma solidity ^0.5.0;\n\nimport \"openzeppelin-solidity/contracts/math/SafeMath.sol\";\nimport \"../treasury/Treasury.sol\";\nimport \"../event/EventEmitter.sol\";\n\n/** @title PosterRegistry\n    @author Freydal\n*/\ncontract PosterRegistry is Authorizable {\n    using SafeMath for uint;\n\n    mapping(address => uint) private _balances;\n    uint private _tokensContributed = 0;\n    KosuToken private _token;\n    Treasury private _treasury;\n    EventEmitter private e;\n\n    /** @dev Creates a new PosterRegistry\n        @notice Creates a new PosterRegistry\n        @param _treasuryAddress Deployed Treasury contract address\n        @param _events Deployed Events contract address\n        @param _auth Deployed AuthorizedAddresses contract address\n    */\n    constructor(address _treasuryAddress, address _events, address _auth) Authorizable(_auth) public {\n        _treasury = Treasury(_treasuryAddress);\n        _token = _treasury.digm();\n        e = EventEmitter(_events);\n    }\n\n    /** @dev The number of tokens that have been contributed to the contract\n        @notice The number of tokens that have been contributed to the contract\n        @return Total number of tokens contributed\n    */\n    function tokensContributed() external view returns (uint) {\n        return _tokensContributed;\n    }\n\n    /** @dev The token address\n        @notice The token address\n        @return KosuToken address\n    */\n    function token() external view returns (address) {\n        return address(_token);\n    }\n\n    /** @dev The Treasury address\n        @notice The Treasury address\n        @return Deployed Treasury address\n    */\n    function treasury() external view returns (address) {\n        return address(_treasury);\n    }\n\n    /** @dev Tokens registered for a user\n        @notice Tokens registered for a user\n        @param a Address to get value for\n        @return Tokens registered for address\n    */\n    function tokensRegisteredFor(address a) external view returns (uint) {\n        return tokensFor(a);\n    }\n\n    /** @dev Register tokens.\n        @notice Register tokens.\n        @param msgSender Address that called the proxy\n        @param amount Number of tokens to register\n    */\n    function registerTokens(address msgSender, uint amount) external isAuthorized {\n        //Claim tokens from the treasury, delivering them to this contract and accounting for the balances locally.\n        _treasury.claimTokens(msgSender, amount);\n        _tokensContributed = _tokensContributed.add(amount);\n        _balances[msgSender] = _balances[msgSender].add(amount);\n        emitEvent(msgSender);\n    }\n\n    /** @dev Release tokens\n        @notice Release tokens\n        @param msgSender Address that called the proxy\n        @param amount Number of tokens to release\n    */\n    function releaseTokens(address msgSender, uint amount) external isAuthorized {\n        //Approve treasury to take tokens from this contract, treasury takes tokens and updates accounting.\n        _token.approve(address(_treasury), amount);\n        _treasury.releaseTokens(msgSender, amount);\n        _balances[msgSender] = _balances[msgSender].sub(amount);\n        _tokensContributed = _tokensContributed.sub(amount);\n        emitEvent(msgSender);\n    }\n\n    //Internal\n    function emitEvent(address a) internal {\n        //Emits an event for the address that made a change and the new current balance.\n        bytes32[] memory data = new bytes32[](2);\n        data[0] = bytes32(uint(a));\n        data[1] = bytes32(tokensFor(a));\n        e.emitEvent(\"PosterRegistryUpdate\", data);\n    }\n\n    function tokensFor(address a) internal view returns (uint) {\n        return _balances[a];\n    }\n}\n",
  "sourcePath": "/Users/hen/GitHub/kosu-monorepo/packages/solidity/kosu-system-contracts/contracts/poster/PosterRegistry.sol",
  "compiler": {
    "name": "solc",
    "version": "0.5.0+commit.1d4f565a.Emscripten.clang"
  },
  "schemaVersion": "3.0.6",
  "updatedAt": "2019-04-27T00:45:00.846Z",
  "devdoc": {
    "author": "Freydal",
    "methods": {
      "constructor": {
        "details": "Creates a new PosterRegistry",
        "params": {
          "_auth": "Deployed AuthorizedAddresses contract address",
          "_events": "Deployed Events contract address",
          "_treasuryAddress": "Deployed Treasury contract address"
        }
      },
      "registerTokens(address,uint256)": {
        "details": "Register tokens.",
        "params": {
          "amount": "Number of tokens to register",
          "msgSender": "Address that called the proxy"
        }
      },
      "releaseTokens(address,uint256)": {
        "details": "Release tokens",
        "params": {
          "amount": "Number of tokens to release",
          "msgSender": "Address that called the proxy"
        }
      },
      "token()": {
        "details": "The token address",
        "return": "KosuToken address"
      },
      "tokensContributed()": {
        "details": "The number of tokens that have been contributed to the contract",
        "return": "Total number of tokens contributed"
      },
      "tokensRegisteredFor(address)": {
        "details": "Tokens registered for a user",
        "params": {
          "a": "Address to get value for"
        },
        "return": "Tokens registered for address"
      },
      "treasury()": {
        "details": "The Treasury address",
        "return": "Deployed Treasury address"
      }
    },
    "title": "PosterRegistry"
  },
  "userdoc": {
    "methods": {
      "constructor": "Creates a new PosterRegistry",
      "registerTokens(address,uint256)": {
        "notice": "Register tokens."
      },
      "releaseTokens(address,uint256)": {
        "notice": "Release tokens"
      },
      "token()": {
        "notice": "The token address"
      },
      "tokensContributed()": {
        "notice": "The number of tokens that have been contributed to the contract"
      },
      "tokensRegisteredFor(address)": {
        "notice": "Tokens registered for a user"
      },
      "treasury()": {
        "notice": "The Treasury address"
      }
    }
  }
}